{
  "_format": "hh-sol-artifact-1",
  "contractName": "SequencerInbox",
  "sourceName": "src/bridge/SequencerInbox.sol",
  "abi": [
    {
      "inputs": [
        {
          "internalType": "uint256",
          "name": "_maxDataSize",
          "type": "uint256"
        },
        {
          "internalType": "contract IReader4844",
          "name": "reader4844_",
          "type": "address"
        },
        {
          "internalType": "bool",
          "name": "_isUsingFeeToken",
          "type": "bool"
        }
      ],
      "stateMutability": "nonpayable",
      "type": "constructor"
    },
    {
      "inputs": [],
      "name": "AlreadyInit",
      "type": "error"
    },
    {
      "inputs": [
        {
          "internalType": "bytes32",
          "name": "",
          "type": "bytes32"
        }
      ],
      "name": "AlreadyValidDASKeyset",
      "type": "error"
    },
    {
      "inputs": [
        {
          "internalType": "bytes1",
          "name": "",
          "type": "bytes1"
        }
      ],
      "name": "BadDABatchAttestation",
      "type": "error"
    },
    {
      "inputs": [],
      "name": "BadMaxTimeVariation",
      "type": "error"
    },
    {
      "inputs": [],
      "name": "BadPostUpgradeInit",
      "type": "error"
    },
    {
      "inputs": [
        {
          "internalType": "uint256",
          "name": "stored",
          "type": "uint256"
        },
        {
          "internalType": "uint256",
          "name": "received",
          "type": "uint256"
        }
      ],
      "name": "BadSequencerNumber",
      "type": "error"
    },
    {
      "inputs": [],
      "name": "DataBlobsNotSupported",
      "type": "error"
    },
    {
      "inputs": [
        {
          "internalType": "uint256",
          "name": "dataLength",
          "type": "uint256"
        },
        {
          "internalType": "uint256",
          "name": "maxDataLength",
          "type": "uint256"
        }
      ],
      "name": "DataTooLarge",
      "type": "error"
    },
    {
      "inputs": [],
      "name": "DelayedBackwards",
      "type": "error"
    },
    {
      "inputs": [],
      "name": "DelayedTooFar",
      "type": "error"
    },
    {
      "inputs": [],
      "name": "Deprecated",
      "type": "error"
    },
    {
      "inputs": [],
      "name": "ForceIncludeBlockTooSoon",
      "type": "error"
    },
    {
      "inputs": [],
      "name": "ForceIncludeTimeTooSoon",
      "type": "error"
    },
    {
      "inputs": [],
      "name": "HadZeroInit",
      "type": "error"
    },
    {
      "inputs": [],
      "name": "IncorrectMessagePreimage",
      "type": "error"
    },
    {
      "inputs": [
        {
          "internalType": "string",
          "name": "name",
          "type": "string"
        }
      ],
      "name": "InitParamZero",
      "type": "error"
    },
    {
      "inputs": [
        {
          "internalType": "bytes1",
          "name": "",
          "type": "bytes1"
        }
      ],
      "name": "InvalidHeaderFlag",
      "type": "error"
    },
    {
      "inputs": [],
      "name": "MissingDataHashes",
      "type": "error"
    },
    {
      "inputs": [],
      "name": "NativeTokenMismatch",
      "type": "error"
    },
    {
      "inputs": [
        {
          "internalType": "bytes32",
          "name": "",
          "type": "bytes32"
        }
      ],
      "name": "NoSuchKeyset",
      "type": "error"
    },
    {
      "inputs": [],
      "name": "NotBatchPoster",
      "type": "error"
    },
    {
      "inputs": [
        {
          "internalType": "address",
          "name": "",
          "type": "address"
        }
      ],
      "name": "NotBatchPosterManager",
      "type": "error"
    },
    {
      "inputs": [],
      "name": "NotForked",
      "type": "error"
    },
    {
      "inputs": [],
      "name": "NotOrigin",
      "type": "error"
    },
    {
      "inputs": [
        {
          "internalType": "address",
          "name": "sender",
          "type": "address"
        },
        {
          "internalType": "address",
          "name": "owner",
          "type": "address"
        }
      ],
      "name": "NotOwner",
      "type": "error"
    },
    {
      "inputs": [],
      "name": "RollupNotChanged",
      "type": "error"
    },
    {
      "anonymous": false,
      "inputs": [
        {
          "indexed": true,
          "internalType": "uint256",
          "name": "messageNum",
          "type": "uint256"
        },
        {
          "indexed": false,
          "internalType": "bytes",
          "name": "data",
          "type": "bytes"
        }
      ],
      "name": "InboxMessageDelivered",
      "type": "event"
    },
    {
      "anonymous": false,
      "inputs": [
        {
          "indexed": true,
          "internalType": "uint256",
          "name": "messageNum",
          "type": "uint256"
        }
      ],
      "name": "InboxMessageDeliveredFromOrigin",
      "type": "event"
    },
    {
      "anonymous": false,
      "inputs": [
        {
          "indexed": true,
          "internalType": "bytes32",
          "name": "keysetHash",
          "type": "bytes32"
        }
      ],
      "name": "InvalidateKeyset",
      "type": "event"
    },
    {
      "anonymous": false,
      "inputs": [
        {
          "indexed": true,
          "internalType": "uint256",
          "name": "id",
          "type": "uint256"
        }
      ],
      "name": "OwnerFunctionCalled",
      "type": "event"
    },
    {
      "anonymous": false,
      "inputs": [
        {
          "indexed": true,
          "internalType": "uint256",
          "name": "batchSequenceNumber",
          "type": "uint256"
        },
        {
          "indexed": false,
          "internalType": "bytes",
          "name": "data",
          "type": "bytes"
        }
      ],
      "name": "SequencerBatchData",
      "type": "event"
    },
    {
      "anonymous": false,
      "inputs": [
        {
          "indexed": true,
          "internalType": "uint256",
          "name": "batchSequenceNumber",
          "type": "uint256"
        },
        {
          "indexed": true,
          "internalType": "bytes32",
          "name": "beforeAcc",
          "type": "bytes32"
        },
        {
          "indexed": true,
          "internalType": "bytes32",
          "name": "afterAcc",
          "type": "bytes32"
        },
        {
          "indexed": false,
          "internalType": "bytes32",
          "name": "delayedAcc",
          "type": "bytes32"
        },
        {
          "indexed": false,
          "internalType": "uint256",
          "name": "afterDelayedMessagesRead",
          "type": "uint256"
        },
        {
          "components": [
            {
              "internalType": "uint64",
              "name": "minTimestamp",
              "type": "uint64"
            },
            {
              "internalType": "uint64",
              "name": "maxTimestamp",
              "type": "uint64"
            },
            {
              "internalType": "uint64",
              "name": "minBlockNumber",
              "type": "uint64"
            },
            {
              "internalType": "uint64",
              "name": "maxBlockNumber",
              "type": "uint64"
            }
          ],
          "indexed": false,
          "internalType": "struct IBridge.TimeBounds",
          "name": "timeBounds",
          "type": "tuple"
        },
        {
          "indexed": false,
          "internalType": "enum IBridge.BatchDataLocation",
          "name": "dataLocation",
          "type": "uint8"
        }
      ],
      "name": "SequencerBatchDelivered",
      "type": "event"
    },
    {
      "anonymous": false,
      "inputs": [
        {
          "indexed": true,
          "internalType": "bytes32",
          "name": "keysetHash",
          "type": "bytes32"
        },
        {
          "indexed": false,
          "internalType": "bytes",
          "name": "keysetBytes",
          "type": "bytes"
        }
      ],
      "name": "SetValidKeyset",
      "type": "event"
    },
    {
      "inputs": [],
      "name": "BROTLI_MESSAGE_HEADER_FLAG",
      "outputs": [
        {
          "internalType": "bytes1",
          "name": "",
          "type": "bytes1"
        }
      ],
      "stateMutability": "view",
      "type": "function"
    },
    {
      "inputs": [],
      "name": "DAS_MESSAGE_HEADER_FLAG",
      "outputs": [
        {
          "internalType": "bytes1",
          "name": "",
          "type": "bytes1"
        }
      ],
      "stateMutability": "view",
      "type": "function"
    },
    {
      "inputs": [],
      "name": "DATA_AUTHENTICATED_FLAG",
      "outputs": [
        {
          "internalType": "bytes1",
          "name": "",
          "type": "bytes1"
        }
      ],
      "stateMutability": "view",
      "type": "function"
    },
    {
      "inputs": [],
      "name": "DATA_BLOB_HEADER_FLAG",
      "outputs": [
        {
          "internalType": "bytes1",
          "name": "",
          "type": "bytes1"
        }
      ],
      "stateMutability": "view",
      "type": "function"
    },
    {
      "inputs": [],
      "name": "HEADER_LENGTH",
      "outputs": [
        {
          "internalType": "uint256",
          "name": "",
          "type": "uint256"
        }
      ],
      "stateMutability": "view",
      "type": "function"
    },
    {
      "inputs": [],
      "name": "TREE_DAS_MESSAGE_HEADER_FLAG",
      "outputs": [
        {
          "internalType": "bytes1",
          "name": "",
          "type": "bytes1"
        }
      ],
      "stateMutability": "view",
      "type": "function"
    },
    {
      "inputs": [],
      "name": "ZERO_HEAVY_MESSAGE_HEADER_FLAG",
      "outputs": [
        {
          "internalType": "bytes1",
          "name": "",
          "type": "bytes1"
        }
      ],
      "stateMutability": "view",
      "type": "function"
    },
    {
      "inputs": [
        {
          "internalType": "uint256",
          "name": "sequenceNumber",
          "type": "uint256"
        },
        {
          "internalType": "bytes",
          "name": "data",
          "type": "bytes"
        },
        {
          "internalType": "uint256",
          "name": "afterDelayedMessagesRead",
          "type": "uint256"
        },
        {
          "internalType": "contract IGasRefunder",
          "name": "gasRefunder",
          "type": "address"
        },
        {
          "internalType": "uint256",
          "name": "prevMessageCount",
          "type": "uint256"
        },
        {
          "internalType": "uint256",
          "name": "newMessageCount",
          "type": "uint256"
        }
      ],
      "name": "addSequencerL2Batch",
      "outputs": [],
      "stateMutability": "nonpayable",
      "type": "function"
    },
    {
      "inputs": [
        {
          "internalType": "uint256",
          "name": "sequenceNumber",
          "type": "uint256"
        },
        {
          "internalType": "uint256",
          "name": "afterDelayedMessagesRead",
          "type": "uint256"
        },
        {
          "internalType": "contract IGasRefunder",
          "name": "gasRefunder",
          "type": "address"
        },
        {
          "internalType": "uint256",
          "name": "prevMessageCount",
          "type": "uint256"
        },
        {
          "internalType": "uint256",
          "name": "newMessageCount",
          "type": "uint256"
        }
      ],
      "name": "addSequencerL2BatchFromBlobs",
      "outputs": [],
      "stateMutability": "nonpayable",
      "type": "function"
    },
    {
      "inputs": [
        {
          "internalType": "uint256",
          "name": "",
          "type": "uint256"
        },
        {
          "internalType": "bytes",
          "name": "",
          "type": "bytes"
        },
        {
          "internalType": "uint256",
          "name": "",
          "type": "uint256"
        },
        {
          "internalType": "contract IGasRefunder",
          "name": "",
          "type": "address"
        }
      ],
      "name": "addSequencerL2BatchFromOrigin",
      "outputs": [],
      "stateMutability": "pure",
      "type": "function"
    },
    {
      "inputs": [
        {
          "internalType": "uint256",
          "name": "sequenceNumber",
          "type": "uint256"
        },
        {
          "internalType": "bytes",
          "name": "data",
          "type": "bytes"
        },
        {
          "internalType": "uint256",
          "name": "afterDelayedMessagesRead",
          "type": "uint256"
        },
        {
          "internalType": "contract IGasRefunder",
          "name": "gasRefunder",
          "type": "address"
        },
        {
          "internalType": "uint256",
          "name": "prevMessageCount",
          "type": "uint256"
        },
        {
          "internalType": "uint256",
          "name": "newMessageCount",
          "type": "uint256"
        }
      ],
      "name": "addSequencerL2BatchFromOrigin",
      "outputs": [],
      "stateMutability": "nonpayable",
      "type": "function"
    },
    {
      "inputs": [],
      "name": "batchCount",
      "outputs": [
        {
          "internalType": "uint256",
          "name": "",
          "type": "uint256"
        }
      ],
      "stateMutability": "view",
      "type": "function"
    },
    {
      "inputs": [],
      "name": "batchPosterManager",
      "outputs": [
        {
          "internalType": "address",
          "name": "",
          "type": "address"
        }
      ],
      "stateMutability": "view",
      "type": "function"
    },
    {
      "inputs": [],
      "name": "bridge",
      "outputs": [
        {
          "internalType": "contract IBridge",
          "name": "",
          "type": "address"
        }
      ],
      "stateMutability": "view",
      "type": "function"
    },
    {
      "inputs": [],
      "name": "daBridge",
      "outputs": [
        {
          "internalType": "contract IDABridge",
          "name": "",
          "type": "address"
        }
      ],
      "stateMutability": "view",
      "type": "function"
    },
    {
      "inputs": [
        {
          "internalType": "bytes32",
          "name": "",
          "type": "bytes32"
        }
      ],
      "name": "dasKeySetInfo",
      "outputs": [
        {
          "internalType": "bool",
          "name": "isValidKeyset",
          "type": "bool"
        },
        {
          "internalType": "uint64",
          "name": "creationBlock",
          "type": "uint64"
        }
      ],
      "stateMutability": "view",
      "type": "function"
    },
    {
      "inputs": [
        {
          "internalType": "uint256",
          "name": "_totalDelayedMessagesRead",
          "type": "uint256"
        },
        {
          "internalType": "uint8",
          "name": "kind",
          "type": "uint8"
        },
        {
          "internalType": "uint64[2]",
          "name": "l1BlockAndTime",
          "type": "uint64[2]"
        },
        {
          "internalType": "uint256",
          "name": "baseFeeL1",
          "type": "uint256"
        },
        {
          "internalType": "address",
          "name": "sender",
          "type": "address"
        },
        {
          "internalType": "bytes32",
          "name": "messageDataHash",
          "type": "bytes32"
        }
      ],
      "name": "forceInclusion",
      "outputs": [],
      "stateMutability": "nonpayable",
      "type": "function"
    },
    {
      "inputs": [
        {
          "internalType": "bytes32",
          "name": "ksHash",
          "type": "bytes32"
        }
      ],
      "name": "getKeysetCreationBlock",
      "outputs": [
        {
          "internalType": "uint256",
          "name": "",
          "type": "uint256"
        }
      ],
      "stateMutability": "view",
      "type": "function"
    },
    {
      "inputs": [
        {
          "internalType": "uint256",
          "name": "index",
          "type": "uint256"
        }
      ],
      "name": "inboxAccs",
      "outputs": [
        {
          "internalType": "bytes32",
          "name": "",
          "type": "bytes32"
        }
      ],
      "stateMutability": "view",
      "type": "function"
    },
    {
      "inputs": [
        {
          "internalType": "contract IBridge",
          "name": "bridge_",
          "type": "address"
        },
        {
          "components": [
            {
              "internalType": "uint256",
              "name": "delayBlocks",
              "type": "uint256"
            },
            {
              "internalType": "uint256",
              "name": "futureBlocks",
              "type": "uint256"
            },
            {
              "internalType": "uint256",
              "name": "delaySeconds",
              "type": "uint256"
            },
            {
              "internalType": "uint256",
              "name": "futureSeconds",
              "type": "uint256"
            }
          ],
          "internalType": "struct ISequencerInbox.MaxTimeVariation",
          "name": "maxTimeVariation_",
          "type": "tuple"
        },
        {
          "internalType": "contract IDABridge",
          "name": "daBridge_",
          "type": "address"
        }
      ],
      "name": "initialize",
      "outputs": [],
      "stateMutability": "nonpayable",
      "type": "function"
    },
    {
      "inputs": [
        {
          "internalType": "bytes32",
          "name": "ksHash",
          "type": "bytes32"
        }
      ],
      "name": "invalidateKeysetHash",
      "outputs": [],
      "stateMutability": "nonpayable",
      "type": "function"
    },
    {
      "inputs": [
        {
          "internalType": "address",
          "name": "",
          "type": "address"
        }
      ],
      "name": "isBatchPoster",
      "outputs": [
        {
          "internalType": "bool",
          "name": "",
          "type": "bool"
        }
      ],
      "stateMutability": "view",
      "type": "function"
    },
    {
      "inputs": [
        {
          "internalType": "address",
          "name": "",
          "type": "address"
        }
      ],
      "name": "isSequencer",
      "outputs": [
        {
          "internalType": "bool",
          "name": "",
          "type": "bool"
        }
      ],
      "stateMutability": "view",
      "type": "function"
    },
    {
      "inputs": [],
      "name": "isUsingFeeToken",
      "outputs": [
        {
          "internalType": "bool",
          "name": "",
          "type": "bool"
        }
      ],
      "stateMutability": "view",
      "type": "function"
    },
    {
      "inputs": [
        {
          "internalType": "bytes32",
          "name": "ksHash",
          "type": "bytes32"
        }
      ],
      "name": "isValidKeysetHash",
      "outputs": [
        {
          "internalType": "bool",
          "name": "",
          "type": "bool"
        }
      ],
      "stateMutability": "view",
      "type": "function"
    },
    {
      "inputs": [],
      "name": "maxDataSize",
      "outputs": [
        {
          "internalType": "uint256",
          "name": "",
          "type": "uint256"
        }
      ],
      "stateMutability": "view",
      "type": "function"
    },
    {
      "inputs": [],
      "name": "maxTimeVariation",
      "outputs": [
        {
          "internalType": "uint256",
          "name": "",
          "type": "uint256"
        },
        {
          "internalType": "uint256",
          "name": "",
          "type": "uint256"
        },
        {
          "internalType": "uint256",
          "name": "",
          "type": "uint256"
        },
        {
          "internalType": "uint256",
          "name": "",
          "type": "uint256"
        }
      ],
      "stateMutability": "view",
      "type": "function"
    },
    {
      "inputs": [],
      "name": "postUpgradeInit",
      "outputs": [],
      "stateMutability": "nonpayable",
      "type": "function"
    },
    {
      "inputs": [],
      "name": "reader4844",
      "outputs": [
        {
          "internalType": "contract IReader4844",
          "name": "",
          "type": "address"
        }
      ],
      "stateMutability": "view",
      "type": "function"
    },
    {
      "inputs": [],
      "name": "removeDelayAfterFork",
      "outputs": [],
      "stateMutability": "nonpayable",
      "type": "function"
    },
    {
      "inputs": [],
      "name": "rollup",
      "outputs": [
        {
          "internalType": "contract IOwnable",
          "name": "",
          "type": "address"
        }
      ],
      "stateMutability": "view",
      "type": "function"
    },
    {
      "inputs": [
        {
          "internalType": "address",
          "name": "newBatchPosterManager",
          "type": "address"
        }
      ],
      "name": "setBatchPosterManager",
      "outputs": [],
      "stateMutability": "nonpayable",
      "type": "function"
    },
    {
      "inputs": [
        {
          "internalType": "address",
          "name": "addr",
          "type": "address"
        },
        {
          "internalType": "bool",
          "name": "isBatchPoster_",
          "type": "bool"
        }
      ],
      "name": "setIsBatchPoster",
      "outputs": [],
      "stateMutability": "nonpayable",
      "type": "function"
    },
    {
      "inputs": [
        {
          "internalType": "address",
          "name": "addr",
          "type": "address"
        },
        {
          "internalType": "bool",
          "name": "isSequencer_",
          "type": "bool"
        }
      ],
      "name": "setIsSequencer",
      "outputs": [],
      "stateMutability": "nonpayable",
      "type": "function"
    },
    {
      "inputs": [
        {
          "components": [
            {
              "internalType": "uint256",
              "name": "delayBlocks",
              "type": "uint256"
            },
            {
              "internalType": "uint256",
              "name": "futureBlocks",
              "type": "uint256"
            },
            {
              "internalType": "uint256",
              "name": "delaySeconds",
              "type": "uint256"
            },
            {
              "internalType": "uint256",
              "name": "futureSeconds",
              "type": "uint256"
            }
          ],
          "internalType": "struct ISequencerInbox.MaxTimeVariation",
          "name": "maxTimeVariation_",
          "type": "tuple"
        }
      ],
      "name": "setMaxTimeVariation",
      "outputs": [],
      "stateMutability": "nonpayable",
      "type": "function"
    },
    {
      "inputs": [
        {
          "internalType": "bytes",
          "name": "keysetBytes",
          "type": "bytes"
        }
      ],
      "name": "setValidKeyset",
      "outputs": [],
      "stateMutability": "nonpayable",
      "type": "function"
    },
    {
      "inputs": [],
      "name": "totalDelayedMessagesRead",
      "outputs": [
        {
          "internalType": "uint256",
          "name": "",
          "type": "uint256"
        }
      ],
      "stateMutability": "view",
      "type": "function"
    },
    {
      "inputs": [],
      "name": "updateRollupAddress",
      "outputs": [],
      "stateMutability": "nonpayable",
      "type": "function"
    }
  ],
  "bytecode": "0x610160604052306080526202000060a05246610100526200002b62000103602090811b6200232817901c565b1515610120523480156200003e57600080fd5b5060405162003e2838038062003e288339810160408190526200006191620001a0565b60e083905261012051156200009f576001600160a01b0382161562000099576040516386657a5360e01b815260040160405180910390fd5b620000e8565b6001600160a01b038216620000e8576040516380fc2c0360e01b815260206004820152600a60248201526914995859195c8d0e0d0d60b21b604482015260640160405180910390fd5b6001600160a01b0390911660c0521515610140525062000236565b60408051600481526024810182526020810180516001600160e01b03166302881c7960e11b179052905160009182918291606491620001439190620001f8565b600060405180830381855afa9150503d806000811462000180576040519150601f19603f3d011682016040523d82523d6000602084013e62000185565b606091505b509150915081801562000199575080516020145b9250505090565b600080600060608486031215620001b657600080fd5b835160208501519093506001600160a01b0381168114620001d657600080fd5b60408501519092508015158114620001ed57600080fd5b809150509250925092565b6000825160005b818110156200021b5760208186018101518583015201620001ff565b818111156200022b576000828501525b509190910192915050565b60805160a05160c05160e051610100516101205161014051613b3c620002ec6000396000818161043601528181610a39015281816117e2015261273d0152600081816109f001528181611be8015261277f01526000818161165c0152612dd3015260008181610510015281816129cd0152612a090152600081816103fc015281816108fb015281816123cf01526124a1015260008181610bef01526113a001526000818161149601526116c40152613b3c6000f3fe608060405234801561001057600080fd5b50600436106102125760003560e01c80638442086011610120578063cc2a1a0c116100b8578063e78cea921161007c578063e78cea92146104f8578063e8eb1dc31461050b578063ebea461d14610532578063f19815781461055a578063f60a50911461056d57600080fd5b8063cc2a1a0c146104a1578063d1ce8da8146104b4578063d9dd67ab146104c7578063e0bc9729146104da578063e5a358c8146104ed57600080fd5b806384420860146103e45780638d910dde146103f75780638f111f3c1461041e57806392d9f7821461043157806395fcea781461045857806396cc5c7814610460578063af19ad2314610468578063b31761f81461047b578063cb23bcb51461048e57600080fd5b80633e5aa082116101ae5780636e7df3e7116101725780636e7df3e7146103405780636f12b0c914610353578063715ea34b1461036657806371c3e6fe146103b85780637fa3a40e146103db57600080fd5b80633e5aa082146102d75780635f5b2874146102ea5780636ae71f121461030a5780636c890450146103125780636d46e9871461031d57600080fd5b806302c992751461021757806306f13056146102385780631637be481461024e57806316af91a7146102815780631f956632146102895780631ff647901461029e578063258f0495146102b157806327957a49146102c45780632cbf74e5146102cc575b600080fd5b610222600160fd1b81565b60405161022f91906130d8565b60405180910390f35b610240610578565b60405190815260200161022f565b61027161025c3660046130ed565b60009081526009602052604090205460ff1690565b604051901515815260200161022f565b610222600081565b61029c61029736600461312c565b6105f8565b005b61029c6102ac366004613165565b610711565b6102406102bf3660046130ed565b61088f565b610240602881565b610222600560fc1b81565b61029c6102e5366004613189565b6108f8565b6002546102fd906001600160a01b031681565b60405161022f91906131d2565b61029c610cd8565b610222600160fb1b81565b61027161032b366004613165565b600a6020526000908152604090205460ff1681565b61029c61034e36600461312c565b610e8b565b61029c61036136600461322e565b610f9b565b6103996103743660046130ed565b60096020526000908152604090205460ff81169061010090046001600160401b031682565b6040805192151583526001600160401b0390911660208301520161022f565b6102716103c6366004613165565b60046020526000908152604090205460ff1681565b61024060005481565b61029c6103f23660046130ed565b610fb4565b6102fd7f000000000000000000000000000000000000000000000000000000000000000081565b61029c61042c366004613298565b611121565b6102717f000000000000000000000000000000000000000000000000000000000000000081565b61029c61148b565b61029c611659565b61029c610476366004613314565b6116b9565b61029c6104893660046133af565b611933565b6003546102fd906001600160a01b031681565b600c546102fd906001600160a01b031681565b61029c6104c2366004613414565b611a3a565b6102406104d53660046130ed565b611d38565b61029c6104e8366004613298565b611dbb565b610222600160fe1b81565b6001546102fd906001600160a01b031681565b6102407f000000000000000000000000000000000000000000000000000000000000000081565b61053a611f11565b60408051948552602085019390935291830152606082015260800161022f565b61029c610568366004613455565b611f49565b610222600160ff1b81565b600154604080516221048360e21b815290516000926001600160a01b0316916284120c916004808301926020929190829003018186803b1580156105bb57600080fd5b505afa1580156105cf573d6000803e3d6000fd5b505050506040513d601f19601f820116820180604052508101906105f391906134c5565b905090565b600360009054906101000a90046001600160a01b03166001600160a01b0316638da5cb5b6040518163ffffffff1660e01b815260040160206040518083038186803b15801561064657600080fd5b505afa15801561065a573d6000803e3d6000fd5b505050506040513d601f19601f8201168201806040525081019061067e91906134de565b6001600160a01b0316336001600160a01b0316141580156106aa5750600c546001600160a01b03163314155b156106d357336040516333059da160e11b81526004016106ca91906131d2565b60405180910390fd5b6001600160a01b0382166000908152600a6020526040808220805460ff191684151517905551600491600080516020613ae783398151915291a25050565b600360009054906101000a90046001600160a01b03166001600160a01b0316638da5cb5b6040518163ffffffff1660e01b815260040160206040518083038186803b15801561075f57600080fd5b505afa158015610773573d6000803e3d6000fd5b505050506040513d601f19601f8201168201806040525081019061079791906134de565b6001600160a01b0316336001600160a01b0316146108575760035460408051638da5cb5b60e01b8152905133926001600160a01b031691638da5cb5b916004808301926020929190829003018186803b1580156107f357600080fd5b505afa158015610807573d6000803e3d6000fd5b505050506040513d601f19601f8201168201806040525081019061082b91906134de565b604051631194af8760e11b81526001600160a01b039283166004820152911660248201526044016106ca565b600c80546001600160a01b0319166001600160a01b038316179055604051600590600080516020613ae783398151915290600090a250565b600081815260096020908152604080832081518083019092525460ff81161515825261010090046001600160401b0316918101829052906108e55760405162f20c5d60e01b8152600481018490526024016106ca565b602001516001600160401b031692915050565b827f000000000000000000000000000000000000000000000000000000000000000060005a3360009081526004602052604090205490915060ff1661095057604051632dd9fc9760e01b815260040160405180910390fd5b600080600061095e8a6123c0565b925092509250600080600080610978878f60008f8f6125c0565b929650909450925090508e80851480159061099557506000198114155b156109bd5760405163ac7411c960e01b815260048101869052602481018290526044016106ca565b818482600080516020613ac7833981519152866000548c60036040516109e694939291906134fb565b60405180910390a47f000000000000000000000000000000000000000000000000000000000000000015610a2d576040516386657a5360e01b815260040160405180910390fd5b3332148015610a5a57507f0000000000000000000000000000000000000000000000000000000000000000155b15610a6b57610a6b8886488961277c565b505050506001600160a01b038716159350610cce92505050573660006020610a9483601f613585565b610a9e919061359d565b9050610200610aae6002836136a3565b610ab8919061359d565b610ac38260066136b2565b610acd9190613585565b610ad79084613585565b9250333214610ae95760009150610c3e565b6001600160a01b03841615610c3e57836001600160a01b031663e83a2d826040518163ffffffff1660e01b815260040160006040518083038186803b158015610b3157600080fd5b505afa925050508015610b6657506040513d6000823e601f3d908101601f19168201604052610b6391908101906136d1565b60015b610b6f57610c3e565b805115610c3c576000856001600160a01b0316631f6d6ef76040518163ffffffff1660e01b815260040160206040518083038186803b158015610bb157600080fd5b505afa158015610bc5573d6000803e3d6000fd5b505050506040513d601f19601f82011682018060405250810190610be991906134c5565b905048817f00000000000000000000000000000000000000000000000000000000000000008451610c1a91906136b2565b610c2491906136b2565b610c2e919061359d565b610c389086613585565b9450505b505b846001600160a01b031663e3db8a49335a610c599087613776565b856040518463ffffffff1660e01b8152600401610c789392919061378d565b602060405180830381600087803b158015610c9257600080fd5b505af1158015610ca6573d6000803e3d6000fd5b505050506040513d601f19601f82011682018060405250810190610cca91906137ae565b5050505b5050505050505050565b600360009054906101000a90046001600160a01b03166001600160a01b0316638da5cb5b6040518163ffffffff1660e01b815260040160206040518083038186803b158015610d2657600080fd5b505afa158015610d3a573d6000803e3d6000fd5b505050506040513d601f19601f82011682018060405250810190610d5e91906134de565b6001600160a01b0316336001600160a01b031614610dba5760035460408051638da5cb5b60e01b8152905133926001600160a01b031691638da5cb5b916004808301926020929190829003018186803b1580156107f357600080fd5b6001546040805163cb23bcb560e01b815290516000926001600160a01b03169163cb23bcb5916004808301926020929190829003018186803b158015610dff57600080fd5b505afa158015610e13573d6000803e3d6000fd5b505050506040513d601f19601f82011682018060405250810190610e3791906134de565b6003549091506001600160a01b0380831691161415610e695760405163d054909f60e01b815260040160405180910390fd5b600380546001600160a01b0319166001600160a01b0392909216919091179055565b600360009054906101000a90046001600160a01b03166001600160a01b0316638da5cb5b6040518163ffffffff1660e01b815260040160206040518083038186803b158015610ed957600080fd5b505afa158015610eed573d6000803e3d6000fd5b505050506040513d601f19601f82011682018060405250810190610f1191906134de565b6001600160a01b0316336001600160a01b031614158015610f3d5750600c546001600160a01b03163314155b15610f5d57336040516333059da160e11b81526004016106ca91906131d2565b6001600160a01b038216600090815260046020526040808220805460ff191684151517905551600191600080516020613ae783398151915291a25050565b6040516331cee75f60e21b815260040160405180910390fd5b600360009054906101000a90046001600160a01b03166001600160a01b0316638da5cb5b6040518163ffffffff1660e01b815260040160206040518083038186803b15801561100257600080fd5b505afa158015611016573d6000803e3d6000fd5b505050506040513d601f19601f8201168201806040525081019061103a91906134de565b6001600160a01b0316336001600160a01b0316146110965760035460408051638da5cb5b60e01b8152905133926001600160a01b031691638da5cb5b916004808301926020929190829003018186803b1580156107f357600080fd5b60008181526009602052604090205460ff166110c75760405162f20c5d60e01b8152600481018290526024016106ca565b600081815260096020526040808220805460ff191690555182917f5cb4218b272fd214168ac43e90fb4d05d6c36f0b17ffb4c2dd07c234d744eb2a91a2604051600390600080516020613ae783398151915290600090a250565b826000805a90503332146111485760405163feb3d07160e01b815260040160405180910390fd5b3360009081526004602052604090205460ff1661117857604051632dd9fc9760e01b815260040160405180910390fd5b6000806111868b8b8b6129b2565b90925090508b81838c8c8b8b60008080806111a489888a89896125c0565b93509350935093508a84141580156111be57506000198b14155b156111e65760405163ac7411c960e01b815260048101859052602481018c90526044016106ca565b808385600080516020613ac7833981519152856000548f600060405161120f94939291906134fb565b60405180910390a4505050506001600160a01b038c1615985061147f97505050505050505057366000602061124583601f613585565b61124f919061359d565b905061020061125f6002836136a3565b611269919061359d565b6112748260066136b2565b61127e9190613585565b6112889084613585565b925033321461129a57600091506113ef565b6001600160a01b038416156113ef57836001600160a01b031663e83a2d826040518163ffffffff1660e01b815260040160006040518083038186803b1580156112e257600080fd5b505afa92505050801561131757506040513d6000823e601f3d908101601f1916820160405261131491908101906136d1565b60015b611320576113ef565b8051156113ed576000856001600160a01b0316631f6d6ef76040518163ffffffff1660e01b815260040160206040518083038186803b15801561136257600080fd5b505afa158015611376573d6000803e3d6000fd5b505050506040513d601f19601f8201168201806040525081019061139a91906134c5565b905048817f000000000000000000000000000000000000000000000000000000000000000084516113cb91906136b2565b6113d591906136b2565b6113df919061359d565b6113e99086613585565b9450505b505b846001600160a01b031663e3db8a49335a61140a9087613776565b856040518463ffffffff1660e01b81526004016114299392919061378d565b602060405180830381600087803b15801561144357600080fd5b505af1158015611457573d6000803e3d6000fd5b505050506040513d601f19601f8201168201806040525081019061147b91906137ae565b5050505b50505050505050505050565b306001600160a01b037f00000000000000000000000000000000000000000000000000000000000000001614156114d45760405162461bcd60e51b81526004016106ca906137cb565b7fb53127684a568b3173ae13b9f8a6016e243e63b6e8ee1178d6a717850b5d61038054336001600160a01b0382161461153157604051631194af8760e11b81523360048201526001600160a01b03821660248201526044016106ca565b6005541580156115415750600654155b801561154d5750600754155b80156115595750600854155b1561157757604051633bcd329760e21b815260040160405180910390fd5b6005546001600160401b03108061159657506006546001600160401b03105b806115a957506007546001600160401b03105b806115bc57506008546001600160401b03105b156115da5760405163d0afb66160e01b815260040160405180910390fd5b505060058054600b80546006805460078054600880546001600160401b03908116600160c01b026001600160c01b03938216600160801b02939093166001600160801b03958216600160401b026001600160801b0319909816919099161795909517929092169590951717909255600093849055908390559082905555565b467f0000000000000000000000000000000000000000000000000000000000000000141561169a57604051635180dd8360e11b815260040160405180910390fd5b7801000000000000000100000000000000010000000000000001600b55565b306001600160a01b037f00000000000000000000000000000000000000000000000000000000000000001614156117025760405162461bcd60e51b81526004016106ca906137cb565b6001546001600160a01b03161561172c57604051633bcd329760e21b815260040160405180910390fd5b6001600160a01b03831661175357604051631ad0f74360e01b815260040160405180910390fd5b6000836001600160a01b031663e1758bd86040518163ffffffff1660e01b815260040160206040518083038186803b15801561178e57600080fd5b505afa9250505080156117be575060408051601f3d908101601f191682019092526117bb918101906134de565b60015b6117c7576117dd565b6001600160a01b038116156117db57600191505b505b8015157f00000000000000000000000000000000000000000000000000000000000000001515146118215760405163c3e31f8d60e01b815260040160405180910390fd5b600180546001600160a01b0319166001600160a01b0386169081179091556040805163cb23bcb560e01b8152905163cb23bcb591600480820192602092909190829003018186803b15801561187557600080fd5b505afa158015611889573d6000803e3d6000fd5b505050506040513d601f19601f820116820180604052508101906118ad91906134de565b600380546001600160a01b0319166001600160a01b03929092169190911790556118e46118df368590038501856133af565b612cf4565b6002546001600160a01b03161561190e57604051633bcd329760e21b815260040160405180910390fd5b50600280546001600160a01b0319166001600160a01b03929092169190911790555050565b600360009054906101000a90046001600160a01b03166001600160a01b0316638da5cb5b6040518163ffffffff1660e01b815260040160206040518083038186803b15801561198157600080fd5b505afa158015611995573d6000803e3d6000fd5b505050506040513d601f19601f820116820180604052508101906119b991906134de565b6001600160a01b0316336001600160a01b031614611a155760035460408051638da5cb5b60e01b8152905133926001600160a01b031691638da5cb5b916004808301926020929190829003018186803b1580156107f357600080fd5b611a1e81612cf4565b604051600090600080516020613ae7833981519152908290a250565b600360009054906101000a90046001600160a01b03166001600160a01b0316638da5cb5b6040518163ffffffff1660e01b815260040160206040518083038186803b158015611a8857600080fd5b505afa158015611a9c573d6000803e3d6000fd5b505050506040513d601f19601f82011682018060405250810190611ac091906134de565b6001600160a01b0316336001600160a01b031614611b1c5760035460408051638da5cb5b60e01b8152905133926001600160a01b031691638da5cb5b916004808301926020929190829003018186803b1580156107f357600080fd5b60008282604051611b2e929190613817565b604051908190038120607f60f91b6020830152602182015260410160408051601f1981840301815291905280516020909101209050600160ff1b8118620100008310611bb25760405162461bcd60e51b81526020600482015260136024820152726b657973657420697320746f6f206c6172676560681b60448201526064016106ca565b60008181526009602052604090205460ff1615611be557604051637d17eeed60e11b8152600481018290526024016106ca565b437f000000000000000000000000000000000000000000000000000000000000000015611c815760646001600160a01b031663a3b1b31d6040518163ffffffff1660e01b815260040160206040518083038186803b158015611c4657600080fd5b505afa158015611c5a573d6000803e3d6000fd5b505050506040513d601f19601f82011682018060405250810190611c7e91906134c5565b90505b604080518082018252600181526001600160401b0383811660208084019182526000878152600990915284902092518354915168ffffffffffffffffff1990921690151568ffffffffffffffff0019161761010091909216021790555182907fabca9b7986bc22ad0160eb0cb88ae75411eacfba4052af0b457a9335ef65572290611d0f9088908890613827565b60405180910390a2604051600290600080516020613ae783398151915290600090a25050505050565b6001546040516316bf557960e01b8152600481018390526000916001600160a01b0316906316bf55799060240160206040518083038186803b158015611d7d57600080fd5b505afa158015611d91573d6000803e3d6000fd5b505050506040513d601f19601f82011682018060405250810190611db591906134c5565b92915050565b826000805a3360009081526004602052604090205490915060ff16158015611dee57506003546001600160a01b03163314155b15611e0c57604051632dd9fc9760e01b815260040160405180910390fd5b600080611e1a8b8b8b6129b2565b909250905060008c82848c8b8b868080611e3787878388886125c0565b929c5090945092509050888a14801590611e5357506000198914155b15611e7b5760405163ac7411c960e01b8152600481018b9052602481018a90526044016106ca565b80838b600080516020613ac7833981519152856000548d6001604051611ea494939291906134fb565b60405180910390a4505050505050505050807ffe325ca1efe4c5c1062c981c3ee74b781debe4ea9440306a96d2a55759c66c208d8d604051611ee7929190613827565b60405180910390a25050506001600160a01b0383161561147f57366000602061124583601f613585565b600080600080600080600080611f25612dcb565b6001600160401b039384169b50918316995082169750169450505050505b90919293565b6000548611611f6b57604051633eb9f37d60e11b815260040160405180910390fd5b600061201b8684611f7f602089018961386c565b611f8f60408a0160208b0161386c565b611f9a60018d613776565b6040805160f89690961b6001600160f81b03191660208088019190915260609590951b6001600160601b031916602187015260c093841b6001600160c01b031990811660358801529290931b909116603d85015260458401526065830188905260858084018790528151808503909101815260a59093019052815191012090565b600b5490915043906001600160401b0316612039602088018861386c565b6120439190613895565b6001600160401b03161061206a5760405163ad3515d960e01b815260040160405180910390fd5b600b544290600160801b90046001600160401b031661208f604088016020890161386c565b6120999190613895565b6001600160401b0316106120c05760405163c76d17e560e01b815260040160405180910390fd5b60006001881115612158576001546001600160a01b031663d5719dc26120e760028b613776565b6040518263ffffffff1660e01b815260040161210591815260200190565b60206040518083038186803b15801561211d57600080fd5b505afa158015612131573d6000803e3d6000fd5b505050506040513d601f19601f8201168201806040525081019061215591906134c5565b90505b60408051602080820184905281830185905282518083038401815260609092019092528051910120600180546001600160a01b03169063d5719dc29061219e908c613776565b6040518263ffffffff1660e01b81526004016121bc91815260200190565b60206040518083038186803b1580156121d457600080fd5b505afa1580156121e8573d6000803e3d6000fd5b505050506040513d601f19601f8201168201806040525081019061220c91906134c5565b1461222a576040516313947fd760e01b815260040160405180910390fd5b6000806122368a612e3c565b9150915060008a90506000600160009054906101000a90046001600160a01b03166001600160a01b0316635fca4a166040518163ffffffff1660e01b815260040160206040518083038186803b15801561228f57600080fd5b505afa1580156122a3573d6000803e3d6000fd5b505050506040513d601f19601f820116820180604052508101906122c791906134c5565b90508060008080806122dc89888388806125c0565b9350935093509350808385600080516020613ac7833981519152856000548d600260405161230d94939291906134fb565b60405180910390a45050505050505050505050505050505050565b60408051600481526024810182526020810180516001600160e01b03166302881c7960e11b17905290516000918291829160649161236691906138f0565b600060405180830381855afa9150503d80600081146123a1576040519150601f19603f3d011682016040523d82523d6000602084013e6123a6565b606091505b50915091508180156123b9575080516020145b9250505090565b60006123ca6130b1565b6000807f00000000000000000000000000000000000000000000000000000000000000006001600160a01b031663e83a2d826040518163ffffffff1660e01b815260040160006040518083038186803b15801561242657600080fd5b505afa15801561243a573d6000803e3d6000fd5b505050506040513d6000823e601f3d908101601f1916820160405261246291908101906136d1565b905080516000141561248757604051631e693f5b60e11b815260040160405180910390fd5b60008061249387612e68565b9150915060008351620200007f00000000000000000000000000000000000000000000000000000000000000006001600160a01b0316631f6d6ef76040518163ffffffff1660e01b815260040160206040518083038186803b1580156124f857600080fd5b505afa15801561250c573d6000803e3d6000fd5b505050506040513d601f19601f8201168201806040525081019061253091906134c5565b61253a91906136b2565b61254491906136b2565b6040519091508390600560fc1b9061256090879060200161390c565b60408051601f198184030181529082905261257f939291602001613942565b6040516020818303038152906040528051906020012082600048116125a55760006125af565b6125af488461359d565b965096509650505050509193909250565b6000806000806000548810156125e957604051633eb9f37d60e11b815260040160405180910390fd5b600160009054906101000a90046001600160a01b03166001600160a01b031663eca067ad6040518163ffffffff1660e01b815260040160206040518083038186803b15801561263757600080fd5b505afa15801561264b573d6000803e3d6000fd5b505050506040513d601f19601f8201168201806040525081019061266f91906134c5565b88111561268f5760405163925f8bd360e01b815260040160405180910390fd5b60015460405163432cc52b60e11b8152600481018b9052602481018a905260448101889052606481018790526001600160a01b03909116906386598a5690608401608060405180830381600087803b1580156126ea57600080fd5b505af11580156126fe573d6000803e3d6000fd5b505050506040513d601f19601f820116820180604052508101906127229190613985565b60008c905592965090945092509050861580159061275e57507f0000000000000000000000000000000000000000000000000000000000000000155b1561277057612770898548600061277c565b95509550955095915050565b327f000000000000000000000000000000000000000000000000000000000000000015612831576000606c6001600160a01b031663c6f7de0e6040518163ffffffff1660e01b815260040160206040518083038186803b1580156127df57600080fd5b505afa1580156127f3573d6000803e3d6000fd5b505050506040513d601f19601f8201168201806040525081019061281791906134c5565b9050612823488261359d565b61282d9084613585565b9250505b6001600160401b0382111561287f5760405162461bcd60e51b8152602060048201526014602482015273115615149057d1d054d7d393d517d55253950d8d60621b60448201526064016106ca565b604080514260208201526001600160601b0319606084901b16918101919091526054810186905260748101859052609481018490526001600160c01b031960c084901b1660b482015260009060bc0160408051808303601f190181529082905260015481516020830120637a88b10760e01b84526001600160a01b0386811660048601526024850191909152919350600092911690637a88b10790604401602060405180830381600087803b15801561293757600080fd5b505af115801561294b573d6000803e3d6000fd5b505050506040513d601f19601f8201168201806040525081019061296f91906134c5565b9050807fff64905f73a67fb594e0f940a8075a860db489ad991e032f48c81123eb52d60b836040516129a191906139bb565b60405180910390a250505050505050565b60006129bc6130b1565b60006129c9856028613585565b90507f0000000000000000000000000000000000000000000000000000000000000000811115612a3557604051634634691b60e01b8152600481018290527f000000000000000000000000000000000000000000000000000000000000000060248201526044016106ca565b600080612a4186612e68565b90925090508615612cba57612a7188886000818110612a6257612a62613856565b9050013560f81c60f81b612f0f565b612aac5787876000818110612a8857612a88613856565b9050013560f81c60f81b60405163359999ab60e11b81526004016106ca91906130d8565b600160ff1b8888600081612ac257612ac2613856565b6001600160f81b031992013592909216161580159150612ae3575060218710155b15612b3b576000612af8602160018a8c6139ee565b612b0191613a18565b60008181526009602052604090205490915060ff16612b355760405162f20c5d60e01b8152600481018290526024016106ca565b50612cba565b600260009054906101000a90046001600160a01b03166001600160a01b031663172fa4716040518163ffffffff1660e01b815260040160206040518083038186803b158015612b8957600080fd5b505afa158015612b9d573d6000803e3d6000fd5b505050506040513d601f19601f82011682018060405250810190612bc19190613a36565b88886000818110612bd457612bd4613856565b6001600160f81b031992013592909216161580159150612bf5575060648710155b15612cba576002546040516318beec4160e01b81526001600160a01b03909116906318beec4190612c2c908b908b90600401613827565b602060405180830381600087803b158015612c4657600080fd5b505af1158015612c5a573d6000803e3d6000fd5b505050506040513d601f19601f82011682018060405250810190612c7e91906137ae565b15612cba5787876000818110612c9657612c96613856565b9050013560f81c60f81b604051630e604c1560e41b81526004016106ca91906130d8565b818888604051602001612ccf93929190613a60565b60408051601f1981840301815291905280516020909101209890975095505050505050565b80516001600160401b031080612d14575060208101516001600160401b03105b80612d29575060408101516001600160401b03105b80612d3e575060608101516001600160401b03105b15612d5c576040516309cfba7560e01b815260040160405180910390fd5b8051600b8054602084015160408501516060909501516001600160401b03908116600160c01b026001600160c01b03968216600160801b02969096166001600160801b03928216600160401b026001600160801b03199094169190951617919091171691909117919091179055565b6000808080467f000000000000000000000000000000000000000000000000000000000000000014612e0857506001925082915081905080611f43565b5050600b546001600160401b038082169350600160401b820481169250600160801b8204811691600160c01b900416611f43565b6000612e466130b1565b600080612e5285612e68565b8151602090920191909120969095509350505050565b6060612e726130b1565b6000612e7c613006565b90506000816000015182602001518360400151846060015188604051602001612ee495949392919060c095861b6001600160c01b0319908116825294861b8516600882015292851b8416601084015290841b8316601883015290921b16602082015260280190565b60405160208183030381529060405290506028815114612f0657612f06613a88565b94909350915050565b60006001600160f81b031982161580612f3557506001600160f81b03198216600160ff1b145b80612f4d57506001600160f81b03198216601160fb1b145b80612f6557506001600160f81b03198216600160fd1b145b80611db55750600260009054906101000a90046001600160a01b03166001600160a01b031663172fa4716040518163ffffffff1660e01b815260040160206040518083038186803b158015612fb957600080fd5b505afa158015612fcd573d6000803e3d6000fd5b505050506040513d601f19601f82011682018060405250810190612ff19190613a36565b6001600160f81b031983811691161492915050565b61300e6130b1565b6130166130b1565b600080600080613024612dcb565b9350935093509350816001600160401b0316421115613053576130478242613a9e565b6001600160401b031685525b61305d8142613895565b6001600160401b039081166020870152841643111561308f576130808443613a9e565b6001600160401b031660408601525b6130998343613895565b6001600160401b031660608601525092949350505050565b60408051608081018252600080825260208201819052918101829052606081019190915290565b6001600160f81b031991909116815260200190565b6000602082840312156130ff57600080fd5b5035919050565b6001600160a01b038116811461311b57600080fd5b50565b801515811461311b57600080fd5b6000806040838503121561313f57600080fd5b823561314a81613106565b9150602083013561315a8161311e565b809150509250929050565b60006020828403121561317757600080fd5b813561318281613106565b9392505050565b600080600080600060a086880312156131a157600080fd5b853594506020860135935060408601356131ba81613106565b94979396509394606081013594506080013592915050565b6001600160a01b0391909116815260200190565b60008083601f8401126131f857600080fd5b5081356001600160401b0381111561320f57600080fd5b60208301915083602082850101111561322757600080fd5b9250929050565b60008060008060006080868803121561324657600080fd5b8535945060208601356001600160401b0381111561326357600080fd5b61326f888289016131e6565b90955093505060408601359150606086013561328a81613106565b809150509295509295909350565b600080600080600080600060c0888a0312156132b357600080fd5b8735965060208801356001600160401b038111156132d057600080fd5b6132dc8a828b016131e6565b9097509550506040880135935060608801356132f781613106565b969995985093969295946080840135945060a09093013592915050565b600080600083850360c081121561332a57600080fd5b843561333581613106565b93506080601f198201121561334957600080fd5b5060208401915060a084013561335e81613106565b809150509250925092565b634e487b7160e01b600052604160045260246000fd5b604051601f8201601f191681016001600160401b03811182821017156133a7576133a7613369565b604052919050565b6000608082840312156133c157600080fd5b604051608081018181106001600160401b03821117156133e3576133e3613369565b8060405250823581526020830135602082015260408301356040820152606083013560608201528091505092915050565b6000806020838503121561342757600080fd5b82356001600160401b0381111561343d57600080fd5b613449858286016131e6565b90969095509350505050565b60008060008060008060e0878903121561346e57600080fd5b86359550602087013560ff8116811461348657600080fd5b9450608087018881111561349957600080fd5b60408801945035925060a08701356134b081613106565b8092505060c087013590509295509295509295565b6000602082840312156134d757600080fd5b5051919050565b6000602082840312156134f057600080fd5b815161318281613106565b600060e0820190508582528460208301526001600160401b038085511660408401528060208601511660608401528060408601511660808401528060608601511660a0840152506004831061356057634e487b7160e01b600052602160045260246000fd5b8260c083015295945050505050565b634e487b7160e01b600052601160045260246000fd5b600082198211156135985761359861356f565b500190565b6000826135ba57634e487b7160e01b600052601260045260246000fd5b500490565b600181815b808511156135fa5781600019048211156135e0576135e061356f565b808516156135ed57918102915b93841c93908002906135c4565b509250929050565b60008261361157506001611db5565b8161361e57506000611db5565b8160018114613634576002811461363e5761365a565b6001915050611db5565b60ff84111561364f5761364f61356f565b50506001821b611db5565b5060208310610133831016604e8410600b841016171561367d575081810a611db5565b61368783836135bf565b806000190482111561369b5761369b61356f565b029392505050565b600061318260ff841683613602565b60008160001904831182151516156136cc576136cc61356f565b500290565b600060208083850312156136e457600080fd5b82516001600160401b03808211156136fb57600080fd5b818501915085601f83011261370f57600080fd5b81518181111561372157613721613369565b8060051b915061373284830161337f565b818152918301840191848101908884111561374c57600080fd5b938501935b8385101561376a57845182529385019390850190613751565b98975050505050505050565b6000828210156137885761378861356f565b500390565b6001600160a01b039390931683526020830191909152604082015260600190565b6000602082840312156137c057600080fd5b81516131828161311e565b6020808252602c908201527f46756e6374696f6e206d7573742062652063616c6c6564207468726f7567682060408201526b19195b1959d85d1958d85b1b60a21b606082015260800190565b8183823760009101908152919050565b60208152816020820152818360408301376000818301604090810191909152601f909201601f19160101919050565b634e487b7160e01b600052603260045260246000fd5b60006020828403121561387e57600080fd5b81356001600160401b038116811461318257600080fd5b60006001600160401b038083168185168083038211156138b7576138b761356f565b01949350505050565b60005b838110156138db5781810151838201526020016138c3565b838111156138ea576000848401525b50505050565b600082516139028184602087016138c0565b9190910192915050565b815160009082906020808601845b838110156139365781518552938201939082019060010161391a565b50929695505050505050565b600084516139548184602089016138c0565b6001600160f81b0319851690830190815283516139788160018401602088016138c0565b0160010195945050505050565b6000806000806080858703121561399b57600080fd5b505082516020840151604085015160609095015191969095509092509050565b60208152600082518060208401526139da8160408501602087016138c0565b601f01601f19169190910160400192915050565b600080858511156139fe57600080fd5b83861115613a0b57600080fd5b5050820193919092039150565b80356020831015611db557600019602084900360031b1b1692915050565b600060208284031215613a4857600080fd5b81516001600160f81b03198116811461318257600080fd5b60008451613a728184602089016138c0565b8201838582376000930192835250909392505050565b634e487b7160e01b600052600160045260246000fd5b60006001600160401b0383811690831681811015613abe57613abe61356f565b03939250505056fe7394f4a19a13c7b92b5bb71033245305946ef78452f7b4986ac1390b5df4ebd7ea8787f128d10b2cc0317b0c3960f9ad447f7f6c1ed189db1083ccffd20f456ea264697066735822122069ad2dcce7bca3ffd4907e54fe0f31822da309a408a57a6c49dbfb7b69693d5764736f6c63430008090033",
  "linkReferences": {},
  "deployedLinkReferences": {}
}