{
  "_format": "hh-sol-artifact-1",
  "contractName": "SequencerInbox",
  "sourceName": "src/bridge/SequencerInbox.sol",
  "abi": [
    {
      "inputs": [
        {
          "internalType": "uint256",
          "name": "_maxDataSize",
          "type": "uint256"
        },
        {
          "internalType": "contract IReader4844",
          "name": "reader4844_",
          "type": "address"
        },
        {
          "internalType": "bool",
          "name": "_isUsingFeeToken",
          "type": "bool"
        }
      ],
      "stateMutability": "nonpayable",
      "type": "constructor"
    },
    {
      "inputs": [],
      "name": "AlreadyInit",
      "type": "error"
    },
    {
      "inputs": [
        {
          "internalType": "bytes32",
          "name": "",
          "type": "bytes32"
        }
      ],
      "name": "AlreadyValidDASKeyset",
      "type": "error"
    },
    {
      "inputs": [
        {
          "internalType": "bytes1",
          "name": "",
          "type": "bytes1"
        }
      ],
      "name": "BadDABatchAttestation",
      "type": "error"
    },
    {
      "inputs": [],
      "name": "BadMaxTimeVariation",
      "type": "error"
    },
    {
      "inputs": [],
      "name": "BadPostUpgradeInit",
      "type": "error"
    },
    {
      "inputs": [
        {
          "internalType": "uint256",
          "name": "stored",
          "type": "uint256"
        },
        {
          "internalType": "uint256",
          "name": "received",
          "type": "uint256"
        }
      ],
      "name": "BadSequencerNumber",
      "type": "error"
    },
    {
      "inputs": [],
      "name": "DataBlobsNotSupported",
      "type": "error"
    },
    {
      "inputs": [
        {
          "internalType": "uint256",
          "name": "dataLength",
          "type": "uint256"
        },
        {
          "internalType": "uint256",
          "name": "maxDataLength",
          "type": "uint256"
        }
      ],
      "name": "DataTooLarge",
      "type": "error"
    },
    {
      "inputs": [],
      "name": "DelayedBackwards",
      "type": "error"
    },
    {
      "inputs": [],
      "name": "DelayedTooFar",
      "type": "error"
    },
    {
      "inputs": [],
      "name": "Deprecated",
      "type": "error"
    },
    {
      "inputs": [],
      "name": "ForceIncludeBlockTooSoon",
      "type": "error"
    },
    {
      "inputs": [],
      "name": "ForceIncludeTimeTooSoon",
      "type": "error"
    },
    {
      "inputs": [],
      "name": "HadZeroInit",
      "type": "error"
    },
    {
      "inputs": [],
      "name": "IncorrectMessagePreimage",
      "type": "error"
    },
    {
      "inputs": [
        {
          "internalType": "string",
          "name": "name",
          "type": "string"
        }
      ],
      "name": "InitParamZero",
      "type": "error"
    },
    {
      "inputs": [
        {
          "internalType": "bytes1",
          "name": "",
          "type": "bytes1"
        }
      ],
      "name": "InvalidHeaderFlag",
      "type": "error"
    },
    {
      "inputs": [],
      "name": "MissingDataHashes",
      "type": "error"
    },
    {
      "inputs": [],
      "name": "NativeTokenMismatch",
      "type": "error"
    },
    {
      "inputs": [
        {
          "internalType": "bytes32",
          "name": "",
          "type": "bytes32"
        }
      ],
      "name": "NoSuchKeyset",
      "type": "error"
    },
    {
      "inputs": [],
      "name": "NotBatchPoster",
      "type": "error"
    },
    {
      "inputs": [
        {
          "internalType": "address",
          "name": "",
          "type": "address"
        }
      ],
      "name": "NotBatchPosterManager",
      "type": "error"
    },
    {
      "inputs": [],
      "name": "NotForked",
      "type": "error"
    },
    {
      "inputs": [],
      "name": "NotOrigin",
      "type": "error"
    },
    {
      "inputs": [
        {
          "internalType": "address",
          "name": "sender",
          "type": "address"
        },
        {
          "internalType": "address",
          "name": "owner",
          "type": "address"
        }
      ],
      "name": "NotOwner",
      "type": "error"
    },
    {
      "inputs": [],
      "name": "RollupNotChanged",
      "type": "error"
    },
    {
      "anonymous": false,
      "inputs": [
        {
          "indexed": true,
          "internalType": "uint256",
          "name": "messageNum",
          "type": "uint256"
        },
        {
          "indexed": false,
          "internalType": "bytes",
          "name": "data",
          "type": "bytes"
        }
      ],
      "name": "InboxMessageDelivered",
      "type": "event"
    },
    {
      "anonymous": false,
      "inputs": [
        {
          "indexed": true,
          "internalType": "uint256",
          "name": "messageNum",
          "type": "uint256"
        }
      ],
      "name": "InboxMessageDeliveredFromOrigin",
      "type": "event"
    },
    {
      "anonymous": false,
      "inputs": [
        {
          "indexed": true,
          "internalType": "bytes32",
          "name": "keysetHash",
          "type": "bytes32"
        }
      ],
      "name": "InvalidateKeyset",
      "type": "event"
    },
    {
      "anonymous": false,
      "inputs": [
        {
          "indexed": true,
          "internalType": "uint256",
          "name": "id",
          "type": "uint256"
        }
      ],
      "name": "OwnerFunctionCalled",
      "type": "event"
    },
    {
      "anonymous": false,
      "inputs": [
        {
          "indexed": true,
          "internalType": "uint256",
          "name": "batchSequenceNumber",
          "type": "uint256"
        },
        {
          "indexed": false,
          "internalType": "bytes",
          "name": "data",
          "type": "bytes"
        }
      ],
      "name": "SequencerBatchData",
      "type": "event"
    },
    {
      "anonymous": false,
      "inputs": [
        {
          "indexed": true,
          "internalType": "uint256",
          "name": "batchSequenceNumber",
          "type": "uint256"
        },
        {
          "indexed": true,
          "internalType": "bytes32",
          "name": "beforeAcc",
          "type": "bytes32"
        },
        {
          "indexed": true,
          "internalType": "bytes32",
          "name": "afterAcc",
          "type": "bytes32"
        },
        {
          "indexed": false,
          "internalType": "bytes32",
          "name": "delayedAcc",
          "type": "bytes32"
        },
        {
          "indexed": false,
          "internalType": "uint256",
          "name": "afterDelayedMessagesRead",
          "type": "uint256"
        },
        {
          "components": [
            {
              "internalType": "uint64",
              "name": "minTimestamp",
              "type": "uint64"
            },
            {
              "internalType": "uint64",
              "name": "maxTimestamp",
              "type": "uint64"
            },
            {
              "internalType": "uint64",
              "name": "minBlockNumber",
              "type": "uint64"
            },
            {
              "internalType": "uint64",
              "name": "maxBlockNumber",
              "type": "uint64"
            }
          ],
          "indexed": false,
          "internalType": "struct IBridge.TimeBounds",
          "name": "timeBounds",
          "type": "tuple"
        },
        {
          "indexed": false,
          "internalType": "enum IBridge.BatchDataLocation",
          "name": "dataLocation",
          "type": "uint8"
        }
      ],
      "name": "SequencerBatchDelivered",
      "type": "event"
    },
    {
      "anonymous": false,
      "inputs": [
        {
          "indexed": true,
          "internalType": "bytes32",
          "name": "keysetHash",
          "type": "bytes32"
        },
        {
          "indexed": false,
          "internalType": "bytes",
          "name": "keysetBytes",
          "type": "bytes"
        }
      ],
      "name": "SetValidKeyset",
      "type": "event"
    },
    {
      "inputs": [],
      "name": "BROTLI_MESSAGE_HEADER_FLAG",
      "outputs": [
        {
          "internalType": "bytes1",
          "name": "",
          "type": "bytes1"
        }
      ],
      "stateMutability": "view",
      "type": "function"
    },
    {
      "inputs": [],
      "name": "DAS_MESSAGE_HEADER_FLAG",
      "outputs": [
        {
          "internalType": "bytes1",
          "name": "",
          "type": "bytes1"
        }
      ],
      "stateMutability": "view",
      "type": "function"
    },
    {
      "inputs": [],
      "name": "DATA_AUTHENTICATED_FLAG",
      "outputs": [
        {
          "internalType": "bytes1",
          "name": "",
          "type": "bytes1"
        }
      ],
      "stateMutability": "view",
      "type": "function"
    },
    {
      "inputs": [],
      "name": "DATA_BLOB_HEADER_FLAG",
      "outputs": [
        {
          "internalType": "bytes1",
          "name": "",
          "type": "bytes1"
        }
      ],
      "stateMutability": "view",
      "type": "function"
    },
    {
      "inputs": [],
      "name": "HEADER_LENGTH",
      "outputs": [
        {
          "internalType": "uint256",
          "name": "",
          "type": "uint256"
        }
      ],
      "stateMutability": "view",
      "type": "function"
    },
    {
      "inputs": [],
      "name": "TREE_DAS_MESSAGE_HEADER_FLAG",
      "outputs": [
        {
          "internalType": "bytes1",
          "name": "",
          "type": "bytes1"
        }
      ],
      "stateMutability": "view",
      "type": "function"
    },
    {
      "inputs": [],
      "name": "ZERO_HEAVY_MESSAGE_HEADER_FLAG",
      "outputs": [
        {
          "internalType": "bytes1",
          "name": "",
          "type": "bytes1"
        }
      ],
      "stateMutability": "view",
      "type": "function"
    },
    {
      "inputs": [
        {
          "internalType": "uint256",
          "name": "sequenceNumber",
          "type": "uint256"
        },
        {
          "internalType": "bytes",
          "name": "data",
          "type": "bytes"
        },
        {
          "internalType": "uint256",
          "name": "afterDelayedMessagesRead",
          "type": "uint256"
        },
        {
          "internalType": "contract IGasRefunder",
          "name": "gasRefunder",
          "type": "address"
        },
        {
          "internalType": "uint256",
          "name": "prevMessageCount",
          "type": "uint256"
        },
        {
          "internalType": "uint256",
          "name": "newMessageCount",
          "type": "uint256"
        }
      ],
      "name": "addSequencerL2Batch",
      "outputs": [],
      "stateMutability": "nonpayable",
      "type": "function"
    },
    {
      "inputs": [
        {
          "internalType": "uint256",
          "name": "sequenceNumber",
          "type": "uint256"
        },
        {
          "internalType": "uint256",
          "name": "afterDelayedMessagesRead",
          "type": "uint256"
        },
        {
          "internalType": "contract IGasRefunder",
          "name": "gasRefunder",
          "type": "address"
        },
        {
          "internalType": "uint256",
          "name": "prevMessageCount",
          "type": "uint256"
        },
        {
          "internalType": "uint256",
          "name": "newMessageCount",
          "type": "uint256"
        }
      ],
      "name": "addSequencerL2BatchFromBlobs",
      "outputs": [],
      "stateMutability": "nonpayable",
      "type": "function"
    },
    {
      "inputs": [
        {
          "internalType": "uint256",
          "name": "",
          "type": "uint256"
        },
        {
          "internalType": "bytes",
          "name": "",
          "type": "bytes"
        },
        {
          "internalType": "uint256",
          "name": "",
          "type": "uint256"
        },
        {
          "internalType": "contract IGasRefunder",
          "name": "",
          "type": "address"
        }
      ],
      "name": "addSequencerL2BatchFromOrigin",
      "outputs": [],
      "stateMutability": "pure",
      "type": "function"
    },
    {
      "inputs": [
        {
          "internalType": "uint256",
          "name": "sequenceNumber",
          "type": "uint256"
        },
        {
          "internalType": "bytes",
          "name": "data",
          "type": "bytes"
        },
        {
          "internalType": "uint256",
          "name": "afterDelayedMessagesRead",
          "type": "uint256"
        },
        {
          "internalType": "contract IGasRefunder",
          "name": "gasRefunder",
          "type": "address"
        },
        {
          "internalType": "uint256",
          "name": "prevMessageCount",
          "type": "uint256"
        },
        {
          "internalType": "uint256",
          "name": "newMessageCount",
          "type": "uint256"
        }
      ],
      "name": "addSequencerL2BatchFromOrigin",
      "outputs": [],
      "stateMutability": "nonpayable",
      "type": "function"
    },
    {
      "inputs": [],
      "name": "batchCount",
      "outputs": [
        {
          "internalType": "uint256",
          "name": "",
          "type": "uint256"
        }
      ],
      "stateMutability": "view",
      "type": "function"
    },
    {
      "inputs": [],
      "name": "batchPosterManager",
      "outputs": [
        {
          "internalType": "address",
          "name": "",
          "type": "address"
        }
      ],
      "stateMutability": "view",
      "type": "function"
    },
    {
      "inputs": [],
      "name": "bridge",
      "outputs": [
        {
          "internalType": "contract IBridge",
          "name": "",
          "type": "address"
        }
      ],
      "stateMutability": "view",
      "type": "function"
    },
    {
      "inputs": [],
      "name": "daBridge",
      "outputs": [
        {
          "internalType": "contract IDABridge",
          "name": "",
          "type": "address"
        }
      ],
      "stateMutability": "view",
      "type": "function"
    },
    {
      "inputs": [
        {
          "internalType": "bytes32",
          "name": "",
          "type": "bytes32"
        }
      ],
      "name": "dasKeySetInfo",
      "outputs": [
        {
          "internalType": "bool",
          "name": "isValidKeyset",
          "type": "bool"
        },
        {
          "internalType": "uint64",
          "name": "creationBlock",
          "type": "uint64"
        }
      ],
      "stateMutability": "view",
      "type": "function"
    },
    {
      "inputs": [
        {
          "internalType": "uint256",
          "name": "_totalDelayedMessagesRead",
          "type": "uint256"
        },
        {
          "internalType": "uint8",
          "name": "kind",
          "type": "uint8"
        },
        {
          "internalType": "uint64[2]",
          "name": "l1BlockAndTime",
          "type": "uint64[2]"
        },
        {
          "internalType": "uint256",
          "name": "baseFeeL1",
          "type": "uint256"
        },
        {
          "internalType": "address",
          "name": "sender",
          "type": "address"
        },
        {
          "internalType": "bytes32",
          "name": "messageDataHash",
          "type": "bytes32"
        }
      ],
      "name": "forceInclusion",
      "outputs": [],
      "stateMutability": "nonpayable",
      "type": "function"
    },
    {
      "inputs": [
        {
          "internalType": "bytes32",
          "name": "ksHash",
          "type": "bytes32"
        }
      ],
      "name": "getKeysetCreationBlock",
      "outputs": [
        {
          "internalType": "uint256",
          "name": "",
          "type": "uint256"
        }
      ],
      "stateMutability": "view",
      "type": "function"
    },
    {
      "inputs": [
        {
          "internalType": "uint256",
          "name": "index",
          "type": "uint256"
        }
      ],
      "name": "inboxAccs",
      "outputs": [
        {
          "internalType": "bytes32",
          "name": "",
          "type": "bytes32"
        }
      ],
      "stateMutability": "view",
      "type": "function"
    },
    {
      "inputs": [
        {
          "internalType": "contract IBridge",
          "name": "bridge_",
          "type": "address"
        },
        {
          "components": [
            {
              "internalType": "uint256",
              "name": "delayBlocks",
              "type": "uint256"
            },
            {
              "internalType": "uint256",
              "name": "futureBlocks",
              "type": "uint256"
            },
            {
              "internalType": "uint256",
              "name": "delaySeconds",
              "type": "uint256"
            },
            {
              "internalType": "uint256",
              "name": "futureSeconds",
              "type": "uint256"
            }
          ],
          "internalType": "struct ISequencerInbox.MaxTimeVariation",
          "name": "maxTimeVariation_",
          "type": "tuple"
        },
        {
          "internalType": "contract IDABridge",
          "name": "daBridge_",
          "type": "address"
        }
      ],
      "name": "initialize",
      "outputs": [],
      "stateMutability": "nonpayable",
      "type": "function"
    },
    {
      "inputs": [
        {
          "internalType": "address",
          "name": "daBridge_",
          "type": "address"
        }
      ],
      "name": "initializeDABridge",
      "outputs": [],
      "stateMutability": "nonpayable",
      "type": "function"
    },
    {
      "inputs": [
        {
          "internalType": "bytes32",
          "name": "ksHash",
          "type": "bytes32"
        }
      ],
      "name": "invalidateKeysetHash",
      "outputs": [],
      "stateMutability": "nonpayable",
      "type": "function"
    },
    {
      "inputs": [
        {
          "internalType": "address",
          "name": "",
          "type": "address"
        }
      ],
      "name": "isBatchPoster",
      "outputs": [
        {
          "internalType": "bool",
          "name": "",
          "type": "bool"
        }
      ],
      "stateMutability": "view",
      "type": "function"
    },
    {
      "inputs": [
        {
          "internalType": "address",
          "name": "",
          "type": "address"
        }
      ],
      "name": "isSequencer",
      "outputs": [
        {
          "internalType": "bool",
          "name": "",
          "type": "bool"
        }
      ],
      "stateMutability": "view",
      "type": "function"
    },
    {
      "inputs": [],
      "name": "isUsingFeeToken",
      "outputs": [
        {
          "internalType": "bool",
          "name": "",
          "type": "bool"
        }
      ],
      "stateMutability": "view",
      "type": "function"
    },
    {
      "inputs": [
        {
          "internalType": "bytes32",
          "name": "ksHash",
          "type": "bytes32"
        }
      ],
      "name": "isValidKeysetHash",
      "outputs": [
        {
          "internalType": "bool",
          "name": "",
          "type": "bool"
        }
      ],
      "stateMutability": "view",
      "type": "function"
    },
    {
      "inputs": [],
      "name": "maxDataSize",
      "outputs": [
        {
          "internalType": "uint256",
          "name": "",
          "type": "uint256"
        }
      ],
      "stateMutability": "view",
      "type": "function"
    },
    {
      "inputs": [],
      "name": "maxTimeVariation",
      "outputs": [
        {
          "internalType": "uint256",
          "name": "",
          "type": "uint256"
        },
        {
          "internalType": "uint256",
          "name": "",
          "type": "uint256"
        },
        {
          "internalType": "uint256",
          "name": "",
          "type": "uint256"
        },
        {
          "internalType": "uint256",
          "name": "",
          "type": "uint256"
        }
      ],
      "stateMutability": "view",
      "type": "function"
    },
    {
      "inputs": [],
      "name": "postUpgradeInit",
      "outputs": [],
      "stateMutability": "nonpayable",
      "type": "function"
    },
    {
      "inputs": [],
      "name": "reader4844",
      "outputs": [
        {
          "internalType": "contract IReader4844",
          "name": "",
          "type": "address"
        }
      ],
      "stateMutability": "view",
      "type": "function"
    },
    {
      "inputs": [],
      "name": "removeDelayAfterFork",
      "outputs": [],
      "stateMutability": "nonpayable",
      "type": "function"
    },
    {
      "inputs": [],
      "name": "rollup",
      "outputs": [
        {
          "internalType": "contract IOwnable",
          "name": "",
          "type": "address"
        }
      ],
      "stateMutability": "view",
      "type": "function"
    },
    {
      "inputs": [
        {
          "internalType": "address",
          "name": "newBatchPosterManager",
          "type": "address"
        }
      ],
      "name": "setBatchPosterManager",
      "outputs": [],
      "stateMutability": "nonpayable",
      "type": "function"
    },
    {
      "inputs": [
        {
          "internalType": "address",
          "name": "addr",
          "type": "address"
        },
        {
          "internalType": "bool",
          "name": "isBatchPoster_",
          "type": "bool"
        }
      ],
      "name": "setIsBatchPoster",
      "outputs": [],
      "stateMutability": "nonpayable",
      "type": "function"
    },
    {
      "inputs": [
        {
          "internalType": "address",
          "name": "addr",
          "type": "address"
        },
        {
          "internalType": "bool",
          "name": "isSequencer_",
          "type": "bool"
        }
      ],
      "name": "setIsSequencer",
      "outputs": [],
      "stateMutability": "nonpayable",
      "type": "function"
    },
    {
      "inputs": [
        {
          "components": [
            {
              "internalType": "uint256",
              "name": "delayBlocks",
              "type": "uint256"
            },
            {
              "internalType": "uint256",
              "name": "futureBlocks",
              "type": "uint256"
            },
            {
              "internalType": "uint256",
              "name": "delaySeconds",
              "type": "uint256"
            },
            {
              "internalType": "uint256",
              "name": "futureSeconds",
              "type": "uint256"
            }
          ],
          "internalType": "struct ISequencerInbox.MaxTimeVariation",
          "name": "maxTimeVariation_",
          "type": "tuple"
        }
      ],
      "name": "setMaxTimeVariation",
      "outputs": [],
      "stateMutability": "nonpayable",
      "type": "function"
    },
    {
      "inputs": [
        {
          "internalType": "bytes",
          "name": "keysetBytes",
          "type": "bytes"
        }
      ],
      "name": "setValidKeyset",
      "outputs": [],
      "stateMutability": "nonpayable",
      "type": "function"
    },
    {
      "inputs": [],
      "name": "totalDelayedMessagesRead",
      "outputs": [
        {
          "internalType": "uint256",
          "name": "",
          "type": "uint256"
        }
      ],
      "stateMutability": "view",
      "type": "function"
    },
    {
      "inputs": [],
      "name": "updateRollupAddress",
      "outputs": [],
      "stateMutability": "nonpayable",
      "type": "function"
    }
  ],
  "bytecode": "0x610160604052306080526202000060a05246610100526200002b62000103602090811b620023eb17901c565b1515610120523480156200003e57600080fd5b5060405162003ef238038062003ef28339810160408190526200006191620001a0565b60e083905261012051156200009f576001600160a01b0382161562000099576040516386657a5360e01b815260040160405180910390fd5b620000e8565b6001600160a01b038216620000e8576040516380fc2c0360e01b815260206004820152600a60248201526914995859195c8d0e0d0d60b21b604482015260640160405180910390fd5b6001600160a01b0390911660c0521515610140525062000236565b60408051600481526024810182526020810180516001600160e01b03166302881c7960e11b179052905160009182918291606491620001439190620001f8565b600060405180830381855afa9150503d806000811462000180576040519150601f19603f3d011682016040523d82523d6000602084013e62000185565b606091505b509150915081801562000199575080516020145b9250505090565b600080600060608486031215620001b657600080fd5b835160208501519093506001600160a01b0381168114620001d657600080fd5b60408501519092508015158114620001ed57600080fd5b809150509250925092565b6000825160005b818110156200021b5760208186018101518583015201620001ff565b818111156200022b576000828501525b509190910192915050565b60805160a05160c05160e051610100516101205161014051613bff620002f36000396000818161045101528181610a67015281816118100152612800015260008181610a1e01528181611c16015261284201526000818161168a0152612e9601526000818161052b01528181612a900152612acc01526000818161041701528181610929015281816124920152612564015260008181610c1d01526113ce0152600081816114c4015281816116f20152611f820152613bff6000f3fe608060405234801561001057600080fd5b506004361061022d5760003560e01c8063844208601161013b578063d1ce8da8116100b8578063e8eb1dc31161007c578063e8eb1dc314610526578063ebea461d1461054d578063f0ef106b14610575578063f198157814610588578063f60a50911461059b57600080fd5b8063d1ce8da8146104cf578063d9dd67ab146104e2578063e0bc9729146104f5578063e5a358c814610508578063e78cea921461051357600080fd5b806396cc5c78116100ff57806396cc5c781461047b578063af19ad2314610483578063b31761f814610496578063cb23bcb5146104a9578063cc2a1a0c146104bc57600080fd5b806384420860146103ff5780638d910dde146104125780638f111f3c1461043957806392d9f7821461044c57806395fcea781461047357600080fd5b80633e5aa082116101c95780636e7df3e71161018d5780636e7df3e71461035b5780636f12b0c91461036e578063715ea34b1461038157806371c3e6fe146103d35780637fa3a40e146103f657600080fd5b80633e5aa082146102f25780635f5b2874146103055780636ae71f12146103255780636c8904501461032d5780636d46e9871461033857600080fd5b806302c992751461023257806306f13056146102535780631637be481461026957806316af91a71461029c5780631f956632146102a45780631ff64790146102b9578063258f0495146102cc57806327957a49146102df5780632cbf74e5146102e7575b600080fd5b61023d600160fd1b81565b60405161024a919061319b565b60405180910390f35b61025b6105a6565b60405190815260200161024a565b61028c6102773660046131b0565b60009081526008602052604090205460ff1690565b604051901515815260200161024a565b61023d600081565b6102b76102b23660046131ef565b610626565b005b6102b76102c7366004613228565b61073f565b61025b6102da3660046131b0565b6108bd565b61025b602881565b61023d600560fc1b81565b6102b761030036600461324c565b610926565b600c54610318906001600160a01b031681565b60405161024a9190613295565b6102b7610d06565b61023d600160fb1b81565b61028c610346366004613228565b60096020526000908152604090205460ff1681565b6102b76103693660046131ef565b610eb9565b6102b761037c3660046132f1565b610fc9565b6103b461038f3660046131b0565b60086020526000908152604090205460ff81169061010090046001600160401b031682565b6040805192151583526001600160401b0390911660208301520161024a565b61028c6103e1366004613228565b60036020526000908152604090205460ff1681565b61025b60005481565b6102b761040d3660046131b0565b610fe2565b6103187f000000000000000000000000000000000000000000000000000000000000000081565b6102b761044736600461335b565b61114f565b61028c7f000000000000000000000000000000000000000000000000000000000000000081565b6102b76114b9565b6102b7611687565b6102b76104913660046133d7565b6116e7565b6102b76104a4366004613472565b611961565b600254610318906001600160a01b031681565b600b54610318906001600160a01b031681565b6102b76104dd3660046134d7565b611a68565b61025b6104f03660046131b0565b611d66565b6102b761050336600461335b565b611de9565b61023d600160fe1b81565b600154610318906001600160a01b031681565b61025b7f000000000000000000000000000000000000000000000000000000000000000081565b610555611f3f565b60408051948552602085019390935291830152606082015260800161024a565b6102b7610583366004613228565b611f77565b6102b7610596366004613518565b61200c565b61023d600160ff1b81565b600154604080516221048360e21b815290516000926001600160a01b0316916284120c916004808301926020929190829003018186803b1580156105e957600080fd5b505afa1580156105fd573d6000803e3d6000fd5b505050506040513d601f19601f820116820180604052508101906106219190613588565b905090565b600260009054906101000a90046001600160a01b03166001600160a01b0316638da5cb5b6040518163ffffffff1660e01b815260040160206040518083038186803b15801561067457600080fd5b505afa158015610688573d6000803e3d6000fd5b505050506040513d601f19601f820116820180604052508101906106ac91906135a1565b6001600160a01b0316336001600160a01b0316141580156106d85750600b546001600160a01b03163314155b1561070157336040516333059da160e11b81526004016106f89190613295565b60405180910390fd5b6001600160a01b038216600090815260096020526040808220805460ff191684151517905551600491600080516020613baa83398151915291a25050565b600260009054906101000a90046001600160a01b03166001600160a01b0316638da5cb5b6040518163ffffffff1660e01b815260040160206040518083038186803b15801561078d57600080fd5b505afa1580156107a1573d6000803e3d6000fd5b505050506040513d601f19601f820116820180604052508101906107c591906135a1565b6001600160a01b0316336001600160a01b0316146108855760025460408051638da5cb5b60e01b8152905133926001600160a01b031691638da5cb5b916004808301926020929190829003018186803b15801561082157600080fd5b505afa158015610835573d6000803e3d6000fd5b505050506040513d601f19601f8201168201806040525081019061085991906135a1565b604051631194af8760e11b81526001600160a01b039283166004820152911660248201526044016106f8565b600b80546001600160a01b0319166001600160a01b038316179055604051600590600080516020613baa83398151915290600090a250565b600081815260086020908152604080832081518083019092525460ff81161515825261010090046001600160401b0316918101829052906109135760405162f20c5d60e01b8152600481018490526024016106f8565b602001516001600160401b031692915050565b827f000000000000000000000000000000000000000000000000000000000000000060005a3360009081526003602052604090205490915060ff1661097e57604051632dd9fc9760e01b815260040160405180910390fd5b600080600061098c8a612483565b9250925092506000806000806109a6878f60008f8f612683565b929650909450925090508e8085148015906109c357506000198114155b156109eb5760405163ac7411c960e01b815260048101869052602481018290526044016106f8565b818482600080516020613b8a833981519152866000548c6003604051610a1494939291906135be565b60405180910390a47f000000000000000000000000000000000000000000000000000000000000000015610a5b576040516386657a5360e01b815260040160405180910390fd5b3332148015610a8857507f0000000000000000000000000000000000000000000000000000000000000000155b15610a9957610a998886488961283f565b505050506001600160a01b038716159350610cfc92505050573660006020610ac283601f613648565b610acc9190613660565b9050610200610adc600283613766565b610ae69190613660565b610af1826006613775565b610afb9190613648565b610b059084613648565b9250333214610b175760009150610c6c565b6001600160a01b03841615610c6c57836001600160a01b031663e83a2d826040518163ffffffff1660e01b815260040160006040518083038186803b158015610b5f57600080fd5b505afa925050508015610b9457506040513d6000823e601f3d908101601f19168201604052610b919190810190613794565b60015b610b9d57610c6c565b805115610c6a576000856001600160a01b0316631f6d6ef76040518163ffffffff1660e01b815260040160206040518083038186803b158015610bdf57600080fd5b505afa158015610bf3573d6000803e3d6000fd5b505050506040513d601f19601f82011682018060405250810190610c179190613588565b905048817f00000000000000000000000000000000000000000000000000000000000000008451610c489190613775565b610c529190613775565b610c5c9190613660565b610c669086613648565b9450505b505b846001600160a01b031663e3db8a49335a610c879087613839565b856040518463ffffffff1660e01b8152600401610ca693929190613850565b602060405180830381600087803b158015610cc057600080fd5b505af1158015610cd4573d6000803e3d6000fd5b505050506040513d601f19601f82011682018060405250810190610cf89190613871565b5050505b5050505050505050565b600260009054906101000a90046001600160a01b03166001600160a01b0316638da5cb5b6040518163ffffffff1660e01b815260040160206040518083038186803b158015610d5457600080fd5b505afa158015610d68573d6000803e3d6000fd5b505050506040513d601f19601f82011682018060405250810190610d8c91906135a1565b6001600160a01b0316336001600160a01b031614610de85760025460408051638da5cb5b60e01b8152905133926001600160a01b031691638da5cb5b916004808301926020929190829003018186803b15801561082157600080fd5b6001546040805163cb23bcb560e01b815290516000926001600160a01b03169163cb23bcb5916004808301926020929190829003018186803b158015610e2d57600080fd5b505afa158015610e41573d6000803e3d6000fd5b505050506040513d601f19601f82011682018060405250810190610e6591906135a1565b6002549091506001600160a01b0380831691161415610e975760405163d054909f60e01b815260040160405180910390fd5b600280546001600160a01b0319166001600160a01b0392909216919091179055565b600260009054906101000a90046001600160a01b03166001600160a01b0316638da5cb5b6040518163ffffffff1660e01b815260040160206040518083038186803b158015610f0757600080fd5b505afa158015610f1b573d6000803e3d6000fd5b505050506040513d601f19601f82011682018060405250810190610f3f91906135a1565b6001600160a01b0316336001600160a01b031614158015610f6b5750600b546001600160a01b03163314155b15610f8b57336040516333059da160e11b81526004016106f89190613295565b6001600160a01b038216600090815260036020526040808220805460ff191684151517905551600191600080516020613baa83398151915291a25050565b6040516331cee75f60e21b815260040160405180910390fd5b600260009054906101000a90046001600160a01b03166001600160a01b0316638da5cb5b6040518163ffffffff1660e01b815260040160206040518083038186803b15801561103057600080fd5b505afa158015611044573d6000803e3d6000fd5b505050506040513d601f19601f8201168201806040525081019061106891906135a1565b6001600160a01b0316336001600160a01b0316146110c45760025460408051638da5cb5b60e01b8152905133926001600160a01b031691638da5cb5b916004808301926020929190829003018186803b15801561082157600080fd5b60008181526008602052604090205460ff166110f55760405162f20c5d60e01b8152600481018290526024016106f8565b600081815260086020526040808220805460ff191690555182917f5cb4218b272fd214168ac43e90fb4d05d6c36f0b17ffb4c2dd07c234d744eb2a91a2604051600390600080516020613baa83398151915290600090a250565b826000805a90503332146111765760405163feb3d07160e01b815260040160405180910390fd5b3360009081526003602052604090205460ff166111a657604051632dd9fc9760e01b815260040160405180910390fd5b6000806111b48b8b8b612a75565b90925090508b81838c8c8b8b60008080806111d289888a8989612683565b93509350935093508a84141580156111ec57506000198b14155b156112145760405163ac7411c960e01b815260048101859052602481018c90526044016106f8565b808385600080516020613b8a833981519152856000548f600060405161123d94939291906135be565b60405180910390a4505050506001600160a01b038c161598506114ad97505050505050505057366000602061127383601f613648565b61127d9190613660565b905061020061128d600283613766565b6112979190613660565b6112a2826006613775565b6112ac9190613648565b6112b69084613648565b92503332146112c8576000915061141d565b6001600160a01b0384161561141d57836001600160a01b031663e83a2d826040518163ffffffff1660e01b815260040160006040518083038186803b15801561131057600080fd5b505afa92505050801561134557506040513d6000823e601f3d908101601f191682016040526113429190810190613794565b60015b61134e5761141d565b80511561141b576000856001600160a01b0316631f6d6ef76040518163ffffffff1660e01b815260040160206040518083038186803b15801561139057600080fd5b505afa1580156113a4573d6000803e3d6000fd5b505050506040513d601f19601f820116820180604052508101906113c89190613588565b905048817f000000000000000000000000000000000000000000000000000000000000000084516113f99190613775565b6114039190613775565b61140d9190613660565b6114179086613648565b9450505b505b846001600160a01b031663e3db8a49335a6114389087613839565b856040518463ffffffff1660e01b815260040161145793929190613850565b602060405180830381600087803b15801561147157600080fd5b505af1158015611485573d6000803e3d6000fd5b505050506040513d601f19601f820116820180604052508101906114a99190613871565b5050505b50505050505050505050565b306001600160a01b037f00000000000000000000000000000000000000000000000000000000000000001614156115025760405162461bcd60e51b81526004016106f89061388e565b7fb53127684a568b3173ae13b9f8a6016e243e63b6e8ee1178d6a717850b5d61038054336001600160a01b0382161461155f57604051631194af8760e11b81523360048201526001600160a01b03821660248201526044016106f8565b60045415801561156f5750600554155b801561157b5750600654155b80156115875750600754155b156115a557604051633bcd329760e21b815260040160405180910390fd5b6004546001600160401b0310806115c457506005546001600160401b03105b806115d757506006546001600160401b03105b806115ea57506007546001600160401b03105b156116085760405163d0afb66160e01b815260040160405180910390fd5b505060048054600a80546005805460068054600780546001600160401b03908116600160c01b026001600160c01b03938216600160801b02939093166001600160801b03958216600160401b026001600160801b0319909816919099161795909517929092169590951717909255600093849055908390559082905555565b467f000000000000000000000000000000000000000000000000000000000000000014156116c857604051635180dd8360e11b815260040160405180910390fd5b7801000000000000000100000000000000010000000000000001600a55565b306001600160a01b037f00000000000000000000000000000000000000000000000000000000000000001614156117305760405162461bcd60e51b81526004016106f89061388e565b6001546001600160a01b03161561175a57604051633bcd329760e21b815260040160405180910390fd5b6001600160a01b03831661178157604051631ad0f74360e01b815260040160405180910390fd5b6000836001600160a01b031663e1758bd86040518163ffffffff1660e01b815260040160206040518083038186803b1580156117bc57600080fd5b505afa9250505080156117ec575060408051601f3d908101601f191682019092526117e9918101906135a1565b60015b6117f55761180b565b6001600160a01b0381161561180957600191505b505b8015157f000000000000000000000000000000000000000000000000000000000000000015151461184f5760405163c3e31f8d60e01b815260040160405180910390fd5b600180546001600160a01b0319166001600160a01b0386169081179091556040805163cb23bcb560e01b8152905163cb23bcb591600480820192602092909190829003018186803b1580156118a357600080fd5b505afa1580156118b7573d6000803e3d6000fd5b505050506040513d601f19601f820116820180604052508101906118db91906135a1565b600280546001600160a01b0319166001600160a01b039290921691909117905561191261190d36859003850185613472565b612db7565b600c546001600160a01b03161561193c57604051633bcd329760e21b815260040160405180910390fd5b50600c80546001600160a01b0319166001600160a01b03929092169190911790555050565b600260009054906101000a90046001600160a01b03166001600160a01b0316638da5cb5b6040518163ffffffff1660e01b815260040160206040518083038186803b1580156119af57600080fd5b505afa1580156119c3573d6000803e3d6000fd5b505050506040513d601f19601f820116820180604052508101906119e791906135a1565b6001600160a01b0316336001600160a01b031614611a435760025460408051638da5cb5b60e01b8152905133926001600160a01b031691638da5cb5b916004808301926020929190829003018186803b15801561082157600080fd5b611a4c81612db7565b604051600090600080516020613baa833981519152908290a250565b600260009054906101000a90046001600160a01b03166001600160a01b0316638da5cb5b6040518163ffffffff1660e01b815260040160206040518083038186803b158015611ab657600080fd5b505afa158015611aca573d6000803e3d6000fd5b505050506040513d601f19601f82011682018060405250810190611aee91906135a1565b6001600160a01b0316336001600160a01b031614611b4a5760025460408051638da5cb5b60e01b8152905133926001600160a01b031691638da5cb5b916004808301926020929190829003018186803b15801561082157600080fd5b60008282604051611b5c9291906138da565b604051908190038120607f60f91b6020830152602182015260410160408051601f1981840301815291905280516020909101209050600160ff1b8118620100008310611be05760405162461bcd60e51b81526020600482015260136024820152726b657973657420697320746f6f206c6172676560681b60448201526064016106f8565b60008181526008602052604090205460ff1615611c1357604051637d17eeed60e11b8152600481018290526024016106f8565b437f000000000000000000000000000000000000000000000000000000000000000015611caf5760646001600160a01b031663a3b1b31d6040518163ffffffff1660e01b815260040160206040518083038186803b158015611c7457600080fd5b505afa158015611c88573d6000803e3d6000fd5b505050506040513d601f19601f82011682018060405250810190611cac9190613588565b90505b604080518082018252600181526001600160401b0383811660208084019182526000878152600890915284902092518354915168ffffffffffffffffff1990921690151568ffffffffffffffff0019161761010091909216021790555182907fabca9b7986bc22ad0160eb0cb88ae75411eacfba4052af0b457a9335ef65572290611d3d90889088906138ea565b60405180910390a2604051600290600080516020613baa83398151915290600090a25050505050565b6001546040516316bf557960e01b8152600481018390526000916001600160a01b0316906316bf55799060240160206040518083038186803b158015611dab57600080fd5b505afa158015611dbf573d6000803e3d6000fd5b505050506040513d601f19601f82011682018060405250810190611de39190613588565b92915050565b826000805a3360009081526003602052604090205490915060ff16158015611e1c57506002546001600160a01b03163314155b15611e3a57604051632dd9fc9760e01b815260040160405180910390fd5b600080611e488b8b8b612a75565b909250905060008c82848c8b8b868080611e658787838888612683565b929c5090945092509050888a14801590611e8157506000198914155b15611ea95760405163ac7411c960e01b8152600481018b9052602481018a90526044016106f8565b80838b600080516020613b8a833981519152856000548d6001604051611ed294939291906135be565b60405180910390a4505050505050505050807ffe325ca1efe4c5c1062c981c3ee74b781debe4ea9440306a96d2a55759c66c208d8d604051611f159291906138ea565b60405180910390a25050506001600160a01b038316156114ad57366000602061127383601f613648565b600080600080600080600080611f53612e8e565b6001600160401b039384169b50918316995082169750169450505050505b90919293565b306001600160a01b037f0000000000000000000000000000000000000000000000000000000000000000161415611fc05760405162461bcd60e51b81526004016106f89061388e565b600c546001600160a01b031615611fea57604051633bcd329760e21b815260040160405180910390fd5b600c80546001600160a01b0319166001600160a01b0392909216919091179055565b600054861161202e57604051633eb9f37d60e11b815260040160405180910390fd5b60006120de8684612042602089018961392f565b61205260408a0160208b0161392f565b61205d60018d613839565b6040805160f89690961b6001600160f81b03191660208088019190915260609590951b6001600160601b031916602187015260c093841b6001600160c01b031990811660358801529290931b909116603d85015260458401526065830188905260858084018790528151808503909101815260a59093019052815191012090565b600a5490915043906001600160401b03166120fc602088018861392f565b6121069190613958565b6001600160401b03161061212d5760405163ad3515d960e01b815260040160405180910390fd5b600a544290600160801b90046001600160401b0316612152604088016020890161392f565b61215c9190613958565b6001600160401b0316106121835760405163c76d17e560e01b815260040160405180910390fd5b6000600188111561221b576001546001600160a01b031663d5719dc26121aa60028b613839565b6040518263ffffffff1660e01b81526004016121c891815260200190565b60206040518083038186803b1580156121e057600080fd5b505afa1580156121f4573d6000803e3d6000fd5b505050506040513d601f19601f820116820180604052508101906122189190613588565b90505b60408051602080820184905281830185905282518083038401815260609092019092528051910120600180546001600160a01b03169063d5719dc290612261908c613839565b6040518263ffffffff1660e01b815260040161227f91815260200190565b60206040518083038186803b15801561229757600080fd5b505afa1580156122ab573d6000803e3d6000fd5b505050506040513d601f19601f820116820180604052508101906122cf9190613588565b146122ed576040516313947fd760e01b815260040160405180910390fd5b6000806122f98a612eff565b9150915060008a90506000600160009054906101000a90046001600160a01b03166001600160a01b0316635fca4a166040518163ffffffff1660e01b815260040160206040518083038186803b15801561235257600080fd5b505afa158015612366573d6000803e3d6000fd5b505050506040513d601f19601f8201168201806040525081019061238a9190613588565b905080600080808061239f8988838880612683565b9350935093509350808385600080516020613b8a833981519152856000548d60026040516123d094939291906135be565b60405180910390a45050505050505050505050505050505050565b60408051600481526024810182526020810180516001600160e01b03166302881c7960e11b17905290516000918291829160649161242991906139b3565b600060405180830381855afa9150503d8060008114612464576040519150601f19603f3d011682016040523d82523d6000602084013e612469565b606091505b509150915081801561247c575080516020145b9250505090565b600061248d613174565b6000807f00000000000000000000000000000000000000000000000000000000000000006001600160a01b031663e83a2d826040518163ffffffff1660e01b815260040160006040518083038186803b1580156124e957600080fd5b505afa1580156124fd573d6000803e3d6000fd5b505050506040513d6000823e601f3d908101601f191682016040526125259190810190613794565b905080516000141561254a57604051631e693f5b60e11b815260040160405180910390fd5b60008061255687612f2b565b9150915060008351620200007f00000000000000000000000000000000000000000000000000000000000000006001600160a01b0316631f6d6ef76040518163ffffffff1660e01b815260040160206040518083038186803b1580156125bb57600080fd5b505afa1580156125cf573d6000803e3d6000fd5b505050506040513d601f19601f820116820180604052508101906125f39190613588565b6125fd9190613775565b6126079190613775565b6040519091508390600560fc1b906126239087906020016139cf565b60408051601f1981840301815290829052612642939291602001613a05565b604051602081830303815290604052805190602001208260004811612668576000612672565b6126724884613660565b965096509650505050509193909250565b6000806000806000548810156126ac57604051633eb9f37d60e11b815260040160405180910390fd5b600160009054906101000a90046001600160a01b03166001600160a01b031663eca067ad6040518163ffffffff1660e01b815260040160206040518083038186803b1580156126fa57600080fd5b505afa15801561270e573d6000803e3d6000fd5b505050506040513d601f19601f820116820180604052508101906127329190613588565b8811156127525760405163925f8bd360e01b815260040160405180910390fd5b60015460405163432cc52b60e11b8152600481018b9052602481018a905260448101889052606481018790526001600160a01b03909116906386598a5690608401608060405180830381600087803b1580156127ad57600080fd5b505af11580156127c1573d6000803e3d6000fd5b505050506040513d601f19601f820116820180604052508101906127e59190613a48565b60008c905592965090945092509050861580159061282157507f0000000000000000000000000000000000000000000000000000000000000000155b1561283357612833898548600061283f565b95509550955095915050565b327f0000000000000000000000000000000000000000000000000000000000000000156128f4576000606c6001600160a01b031663c6f7de0e6040518163ffffffff1660e01b815260040160206040518083038186803b1580156128a257600080fd5b505afa1580156128b6573d6000803e3d6000fd5b505050506040513d601f19601f820116820180604052508101906128da9190613588565b90506128e64882613660565b6128f09084613648565b9250505b6001600160401b038211156129425760405162461bcd60e51b8152602060048201526014602482015273115615149057d1d054d7d393d517d55253950d8d60621b60448201526064016106f8565b604080514260208201526001600160601b0319606084901b16918101919091526054810186905260748101859052609481018490526001600160c01b031960c084901b1660b482015260009060bc0160408051808303601f190181529082905260015481516020830120637a88b10760e01b84526001600160a01b0386811660048601526024850191909152919350600092911690637a88b10790604401602060405180830381600087803b1580156129fa57600080fd5b505af1158015612a0e573d6000803e3d6000fd5b505050506040513d601f19601f82011682018060405250810190612a329190613588565b9050807fff64905f73a67fb594e0f940a8075a860db489ad991e032f48c81123eb52d60b83604051612a649190613a7e565b60405180910390a250505050505050565b6000612a7f613174565b6000612a8c856028613648565b90507f0000000000000000000000000000000000000000000000000000000000000000811115612af857604051634634691b60e01b8152600481018290527f000000000000000000000000000000000000000000000000000000000000000060248201526044016106f8565b600080612b0486612f2b565b90925090508615612d7d57612b3488886000818110612b2557612b25613919565b9050013560f81c60f81b612fd2565b612b6f5787876000818110612b4b57612b4b613919565b9050013560f81c60f81b60405163359999ab60e11b81526004016106f8919061319b565b600160ff1b8888600081612b8557612b85613919565b6001600160f81b031992013592909216161580159150612ba6575060218710155b15612bfe576000612bbb602160018a8c613ab1565b612bc491613adb565b60008181526008602052604090205490915060ff16612bf85760405162f20c5d60e01b8152600481018290526024016106f8565b50612d7d565b600c60009054906101000a90046001600160a01b03166001600160a01b031663172fa4716040518163ffffffff1660e01b815260040160206040518083038186803b158015612c4c57600080fd5b505afa158015612c60573d6000803e3d6000fd5b505050506040513d601f19601f82011682018060405250810190612c849190613af9565b88886000818110612c9757612c97613919565b6001600160f81b031992013592909216161580159150612cb8575060648710155b15612d7d57600c546040516318beec4160e01b81526001600160a01b03909116906318beec4190612cef908b908b906004016138ea565b602060405180830381600087803b158015612d0957600080fd5b505af1158015612d1d573d6000803e3d6000fd5b505050506040513d601f19601f82011682018060405250810190612d419190613871565b15612d7d5787876000818110612d5957612d59613919565b9050013560f81c60f81b604051630e604c1560e41b81526004016106f8919061319b565b818888604051602001612d9293929190613b23565b60408051601f1981840301815291905280516020909101209890975095505050505050565b80516001600160401b031080612dd7575060208101516001600160401b03105b80612dec575060408101516001600160401b03105b80612e01575060608101516001600160401b03105b15612e1f576040516309cfba7560e01b815260040160405180910390fd5b8051600a8054602084015160408501516060909501516001600160401b03908116600160c01b026001600160c01b03968216600160801b02969096166001600160801b03928216600160401b026001600160801b03199094169190951617919091171691909117919091179055565b6000808080467f000000000000000000000000000000000000000000000000000000000000000014612ecb57506001925082915081905080611f71565b5050600a546001600160401b038082169350600160401b820481169250600160801b8204811691600160c01b900416611f71565b6000612f09613174565b600080612f1585612f2b565b8151602090920191909120969095509350505050565b6060612f35613174565b6000612f3f6130c9565b90506000816000015182602001518360400151846060015188604051602001612fa795949392919060c095861b6001600160c01b0319908116825294861b8516600882015292851b8416601084015290841b8316601883015290921b16602082015260280190565b60405160208183030381529060405290506028815114612fc957612fc9613b4b565b94909350915050565b60006001600160f81b031982161580612ff857506001600160f81b03198216600160ff1b145b8061301057506001600160f81b03198216601160fb1b145b8061302857506001600160f81b03198216600160fd1b145b80611de35750600c60009054906101000a90046001600160a01b03166001600160a01b031663172fa4716040518163ffffffff1660e01b815260040160206040518083038186803b15801561307c57600080fd5b505afa158015613090573d6000803e3d6000fd5b505050506040513d601f19601f820116820180604052508101906130b49190613af9565b6001600160f81b031983811691161492915050565b6130d1613174565b6130d9613174565b6000806000806130e7612e8e565b9350935093509350816001600160401b03164211156131165761310a8242613b61565b6001600160401b031685525b6131208142613958565b6001600160401b0390811660208701528416431115613152576131438443613b61565b6001600160401b031660408601525b61315c8343613958565b6001600160401b031660608601525092949350505050565b60408051608081018252600080825260208201819052918101829052606081019190915290565b6001600160f81b031991909116815260200190565b6000602082840312156131c257600080fd5b5035919050565b6001600160a01b03811681146131de57600080fd5b50565b80151581146131de57600080fd5b6000806040838503121561320257600080fd5b823561320d816131c9565b9150602083013561321d816131e1565b809150509250929050565b60006020828403121561323a57600080fd5b8135613245816131c9565b9392505050565b600080600080600060a0868803121561326457600080fd5b8535945060208601359350604086013561327d816131c9565b94979396509394606081013594506080013592915050565b6001600160a01b0391909116815260200190565b60008083601f8401126132bb57600080fd5b5081356001600160401b038111156132d257600080fd5b6020830191508360208285010111156132ea57600080fd5b9250929050565b60008060008060006080868803121561330957600080fd5b8535945060208601356001600160401b0381111561332657600080fd5b613332888289016132a9565b90955093505060408601359150606086013561334d816131c9565b809150509295509295909350565b600080600080600080600060c0888a03121561337657600080fd5b8735965060208801356001600160401b0381111561339357600080fd5b61339f8a828b016132a9565b9097509550506040880135935060608801356133ba816131c9565b969995985093969295946080840135945060a09093013592915050565b600080600083850360c08112156133ed57600080fd5b84356133f8816131c9565b93506080601f198201121561340c57600080fd5b5060208401915060a0840135613421816131c9565b809150509250925092565b634e487b7160e01b600052604160045260246000fd5b604051601f8201601f191681016001600160401b038111828210171561346a5761346a61342c565b604052919050565b60006080828403121561348457600080fd5b604051608081018181106001600160401b03821117156134a6576134a661342c565b8060405250823581526020830135602082015260408301356040820152606083013560608201528091505092915050565b600080602083850312156134ea57600080fd5b82356001600160401b0381111561350057600080fd5b61350c858286016132a9565b90969095509350505050565b60008060008060008060e0878903121561353157600080fd5b86359550602087013560ff8116811461354957600080fd5b9450608087018881111561355c57600080fd5b60408801945035925060a0870135613573816131c9565b8092505060c087013590509295509295509295565b60006020828403121561359a57600080fd5b5051919050565b6000602082840312156135b357600080fd5b8151613245816131c9565b600060e0820190508582528460208301526001600160401b038085511660408401528060208601511660608401528060408601511660808401528060608601511660a0840152506004831061362357634e487b7160e01b600052602160045260246000fd5b8260c083015295945050505050565b634e487b7160e01b600052601160045260246000fd5b6000821982111561365b5761365b613632565b500190565b60008261367d57634e487b7160e01b600052601260045260246000fd5b500490565b600181815b808511156136bd5781600019048211156136a3576136a3613632565b808516156136b057918102915b93841c9390800290613687565b509250929050565b6000826136d457506001611de3565b816136e157506000611de3565b81600181146136f757600281146137015761371d565b6001915050611de3565b60ff84111561371257613712613632565b50506001821b611de3565b5060208310610133831016604e8410600b8410161715613740575081810a611de3565b61374a8383613682565b806000190482111561375e5761375e613632565b029392505050565b600061324560ff8416836136c5565b600081600019048311821515161561378f5761378f613632565b500290565b600060208083850312156137a757600080fd5b82516001600160401b03808211156137be57600080fd5b818501915085601f8301126137d257600080fd5b8151818111156137e4576137e461342c565b8060051b91506137f5848301613442565b818152918301840191848101908884111561380f57600080fd5b938501935b8385101561382d57845182529385019390850190613814565b98975050505050505050565b60008282101561384b5761384b613632565b500390565b6001600160a01b039390931683526020830191909152604082015260600190565b60006020828403121561388357600080fd5b8151613245816131e1565b6020808252602c908201527f46756e6374696f6e206d7573742062652063616c6c6564207468726f7567682060408201526b19195b1959d85d1958d85b1b60a21b606082015260800190565b8183823760009101908152919050565b60208152816020820152818360408301376000818301604090810191909152601f909201601f19160101919050565b634e487b7160e01b600052603260045260246000fd5b60006020828403121561394157600080fd5b81356001600160401b038116811461324557600080fd5b60006001600160401b0380831681851680830382111561397a5761397a613632565b01949350505050565b60005b8381101561399e578181015183820152602001613986565b838111156139ad576000848401525b50505050565b600082516139c5818460208701613983565b9190910192915050565b815160009082906020808601845b838110156139f9578151855293820193908201906001016139dd565b50929695505050505050565b60008451613a17818460208901613983565b6001600160f81b031985169083019081528351613a3b816001840160208801613983565b0160010195945050505050565b60008060008060808587031215613a5e57600080fd5b505082516020840151604085015160609095015191969095509092509050565b6020815260008251806020840152613a9d816040850160208701613983565b601f01601f19169190910160400192915050565b60008085851115613ac157600080fd5b83861115613ace57600080fd5b5050820193919092039150565b80356020831015611de357600019602084900360031b1b1692915050565b600060208284031215613b0b57600080fd5b81516001600160f81b03198116811461324557600080fd5b60008451613b35818460208901613983565b8201838582376000930192835250909392505050565b634e487b7160e01b600052600160045260246000fd5b60006001600160401b0383811690831681811015613b8157613b81613632565b03939250505056fe7394f4a19a13c7b92b5bb71033245305946ef78452f7b4986ac1390b5df4ebd7ea8787f128d10b2cc0317b0c3960f9ad447f7f6c1ed189db1083ccffd20f456ea2646970667358221220918f27bdc927f7206f42a57c2ca2fbdc39af0d47d7c42630967179b66f66cf8f64736f6c63430008090033",
  "linkReferences": {},
  "deployedLinkReferences": {}
}